{
  "contractName": "AccountController",
  "abi": [
    {
      "inputs": [],
      "payable": false,
      "stateMutability": "nonpayable",
      "type": "constructor"
    },
    {
      "constant": true,
      "inputs": [
        {
          "name": "a",
          "type": "string"
        },
        {
          "name": "b",
          "type": "string"
        }
      ],
      "name": "strcmp",
      "outputs": [
        {
          "name": "",
          "type": "bool"
        }
      ],
      "payable": false,
      "stateMutability": "pure",
      "type": "function"
    },
    {
      "constant": true,
      "inputs": [],
      "name": "getOwnedArtworks",
      "outputs": [
        {
          "name": "",
          "type": "string[]"
        }
      ],
      "payable": false,
      "stateMutability": "view",
      "type": "function"
    },
    {
      "constant": true,
      "inputs": [],
      "name": "getOwnedArtworksCount",
      "outputs": [
        {
          "name": "",
          "type": "uint256"
        }
      ],
      "payable": false,
      "stateMutability": "view",
      "type": "function"
    },
    {
      "constant": false,
      "inputs": [
        {
          "name": "imageHash",
          "type": "string"
        },
        {
          "name": "sender",
          "type": "address"
        }
      ],
      "name": "ownArtwork",
      "outputs": [],
      "payable": false,
      "stateMutability": "nonpayable",
      "type": "function"
    }
  ],
  "bytecode": "0x608060405234801561001057600080fd5b50610a56806100206000396000f3fe608060405260043610610062576000357c0100000000000000000000000000000000000000000000000000000000900463ffffffff1680637974b630146100675780639cfbe1a614610092578063a3fade8f146100cf578063c59a6ec5146100fa575b600080fd5b34801561007357600080fd5b5061007c610123565b6040516100899190610880565b60405180910390f35b34801561009e57600080fd5b506100b960048036036100b4919081019061071b565b610248565b6040516100c691906108a2565b60405180910390f35b3480156100db57600080fd5b506100e461033b565b6040516100f191906108dd565b60405180910390f35b34801561010657600080fd5b50610121600480360361011c91908101906106c7565b610384565b005b60606000803373ffffffffffffffffffffffffffffffffffffffff1673ffffffffffffffffffffffffffffffffffffffff168152602001908152602001600020805480602002602001604051908101604052809291908181526020016000905b8282101561023f578382906000526020600020018054600181600116156101000203166002900480601f01602080910402602001604051908101604052809291908181526020018280546001816001161561010002031660029004801561022b5780601f106102005761010080835404028352916020019161022b565b820191906000526020600020905b81548152906001019060200180831161020e57829003601f168201915b505050505081526020019060010190610183565b50505050905090565b6000816040516020018082805190602001908083835b602083101515610283578051825260208201915060208101905060208303925061025e565b6001836020036101000a03801982511681845116808217855250505050505090500191505060405160208183030381529060405280519060200120836040516020018082805190602001908083835b6020831015156102f757805182526020820191506020810190506020830392506102d2565b6001836020036101000a0380198251168184511680821785525050505050509050019150506040516020818303038152906040528051906020012014905092915050565b60008060003373ffffffffffffffffffffffffffffffffffffffff1673ffffffffffffffffffffffffffffffffffffffff16815260200190815260200160002080549050905090565b8181600080905060008090505b6000808473ffffffffffffffffffffffffffffffffffffffff1673ffffffffffffffffffffffffffffffffffffffff168152602001908152602001600020805490508110156104ec576104d16000808573ffffffffffffffffffffffffffffffffffffffff1673ffffffffffffffffffffffffffffffffffffffff1681526020019081526020016000208281548110151561042857fe5b906000526020600020018054600181600116156101000203166002900480601f0160208091040260200160405190810160405280929190818152602001828054600181600116156101000203166002900480156104c65780601f1061049b576101008083540402835291602001916104c6565b820191906000526020600020905b8154815290600101906020018083116104a957829003601f168201915b505050505085610248565b156104df57600191506104ec565b8080600101915050610391565b5060001515811515141515610536576040517f08c379a000000000000000000000000000000000000000000000000000000000815260040161052d906108bd565b60405180910390fd5b6000808573ffffffffffffffffffffffffffffffffffffffff1673ffffffffffffffffffffffffffffffffffffffff1681526020019081526020016000208590806001815401808255809150509060018203906000526020600020016000909192909190915090805190602001906105af9291906105b8565b50505050505050565b828054600181600116156101000203166002900490600052602060002090601f016020900481019282601f106105f957805160ff1916838001178555610627565b82800160010185558215610627579182015b8281111561062657825182559160200191906001019061060b565b5b5090506106349190610638565b5090565b61065a91905b8082111561065657600081600090555060010161063e565b5090565b90565b600061066982356109b7565b905092915050565b600082601f830112151561068457600080fd5b813561069761069282610925565b6108f8565b915080825260208301602083018583830111156106b357600080fd5b6106be8382846109c9565b50505092915050565b600080604083850312156106da57600080fd5b600083013567ffffffffffffffff8111156106f457600080fd5b61070085828601610671565b92505060206107118582860161065d565b9150509250929050565b6000806040838503121561072e57600080fd5b600083013567ffffffffffffffff81111561074857600080fd5b61075485828601610671565b925050602083013567ffffffffffffffff81111561077157600080fd5b61077d85828601610671565b9150509250929050565b60006107928261095e565b808452602084019350836020820285016107ab85610951565b60005b848110156107e45783830388526107c6838351610804565b92506107d182610974565b91506020880197506001810190506107ae565b508196508694505050505092915050565b6107fe81610981565b82525050565b600061080f82610969565b8084526108238160208601602086016109d8565b61082c81610a0b565b602085010191505092915050565b6000601982527f417274776f726b20697320616c7265616479206f776e65642e000000000000006020830152604082019050919050565b61087a816109ad565b82525050565b6000602082019050818103600083015261089a8184610787565b905092915050565b60006020820190506108b760008301846107f5565b92915050565b600060208201905081810360008301526108d68161083a565b9050919050565b60006020820190506108f26000830184610871565b92915050565b6000604051905081810181811067ffffffffffffffff8211171561091b57600080fd5b8060405250919050565b600067ffffffffffffffff82111561093c57600080fd5b601f19601f8301169050602081019050919050565b6000602082019050919050565b600081519050919050565b600081519050919050565b6000602082019050919050565b60008115159050919050565b600073ffffffffffffffffffffffffffffffffffffffff82169050919050565b6000819050919050565b60006109c28261098d565b9050919050565b82818337600083830152505050565b60005b838110156109f65780820151818401526020810190506109db565b83811115610a05576000848401525b50505050565b6000601f19601f830116905091905056fea265627a7a72305820f20105e54d35eec59772618cd359db00d62bd438caf7556319cca53966b254506c6578706572696d656e74616cf50037",
  "source": "pragma solidity ^0.5;\r\npragma experimental ABIEncoderV2;\r\n\r\ncontract AccountController {\r\n\r\n    // Holds IPFS Hash of owned images\r\n    mapping(address => string[]) private ownedItems;\r\n\r\n    constructor() public {\r\n    }\r\n\r\n    // Compare two strings\r\n    function strcmp(string memory a, string memory b) \r\n        public \r\n        pure \r\n        returns (bool)\r\n    {\r\n        return (keccak256(abi.encodePacked((a))) == keccak256(abi.encodePacked((b))));\r\n    }\r\n\r\n    modifier notOwned(string memory imageHash,address sender)\r\n    {\r\n        bool isOwned = false;\r\n        for(uint i = 0;i<ownedItems[sender].length;i++)\r\n        {\r\n            if(strcmp(ownedItems[sender][i],imageHash))\r\n            {\r\n                isOwned = true;\r\n                break;\r\n            }\r\n        }\r\n        require(isOwned == false,\"Artwork is already owned.\");\r\n        _;\r\n    }\r\n\r\n    function getOwnedArtworks() \r\n    view \r\n    public\r\n    returns(string[] memory) {\r\n        return ownedItems[msg.sender];\r\n    }\r\n\r\n    function getOwnedArtworksCount() \r\n    view \r\n    public \r\n    returns (uint) {\r\n        return ownedItems[msg.sender].length;\r\n    }\r\n\r\n    function ownArtwork(string memory imageHash,address sender)\r\n    public\r\n    notOwned(imageHash,sender)\r\n    {\r\n        ownedItems[sender].push(imageHash);\r\n    }\r\n}",
  "sourcePath": "C:\\Users\\berka\\Documents\\Code\\ArtChain\\contracts\\AccountController.sol",
  "compiler": {
    "name": "solc",
    "version": "0.5.0+commit.1d4f565a.Emscripten.clang"
  },
  "schemaVersion": "3.0.3",
  "updatedAt": "2019-04-30T01:42:56.534Z",
  "devdoc": {
    "methods": {}
  },
  "userdoc": {
    "methods": {}
  }
}