{
  "contractName": "ArtworkController",
  "abi": [
    {
      "constant": true,
      "inputs": [
        {
          "name": "",
          "type": "uint256"
        }
      ],
      "name": "artworkHashes",
      "outputs": [
        {
          "name": "",
          "type": "string"
        }
      ],
      "payable": false,
      "stateMutability": "view",
      "type": "function",
      "signature": "0xcab3344a"
    },
    {
      "inputs": [],
      "payable": false,
      "stateMutability": "nonpayable",
      "type": "constructor",
      "signature": "constructor"
    },
    {
      "anonymous": false,
      "inputs": [],
      "name": "ArtworkLicensed",
      "type": "event",
      "signature": "0x1e4ba67414d8c4ef34051027972f0d71d72bcca71db252dac701c3a247dd12d7"
    },
    {
      "anonymous": false,
      "inputs": [],
      "name": "ArtworkSubscribed",
      "type": "event",
      "signature": "0x6a14043a7c64b276dfa5ddf462dfae74b1b78abea94f6c16b69dabdde41bbfaf"
    },
    {
      "constant": false,
      "inputs": [
        {
          "name": "artworkHash",
          "type": "string"
        },
        {
          "name": "imageName",
          "type": "bytes32"
        },
        {
          "name": "imageAuthor",
          "type": "bytes16"
        },
        {
          "name": "imageDescription",
          "type": "string"
        },
        {
          "name": "artTransferLimit",
          "type": "uint32"
        }
      ],
      "name": "addArtwork",
      "outputs": [],
      "payable": false,
      "stateMutability": "nonpayable",
      "type": "function",
      "signature": "0xfe5f67c0"
    },
    {
      "constant": false,
      "inputs": [
        {
          "name": "artworkHash",
          "type": "string"
        }
      ],
      "name": "deleteArtwork",
      "outputs": [],
      "payable": false,
      "stateMutability": "nonpayable",
      "type": "function",
      "signature": "0x03baed71"
    },
    {
      "constant": true,
      "inputs": [],
      "name": "getArtworks",
      "outputs": [
        {
          "name": "",
          "type": "string[]"
        }
      ],
      "payable": false,
      "stateMutability": "view",
      "type": "function",
      "signature": "0x00a71527"
    },
    {
      "constant": true,
      "inputs": [],
      "name": "getArtworksLength",
      "outputs": [
        {
          "name": "",
          "type": "uint256"
        }
      ],
      "payable": false,
      "stateMutability": "view",
      "type": "function",
      "signature": "0x871962dd"
    },
    {
      "constant": true,
      "inputs": [
        {
          "name": "artworkHash",
          "type": "string"
        }
      ],
      "name": "getArtworkDetails",
      "outputs": [
        {
          "name": "",
          "type": "bytes32"
        },
        {
          "name": "",
          "type": "bytes16"
        },
        {
          "name": "",
          "type": "string"
        },
        {
          "name": "",
          "type": "uint32"
        },
        {
          "name": "",
          "type": "uint256"
        },
        {
          "name": "",
          "type": "uint256"
        },
        {
          "name": "",
          "type": "bool"
        }
      ],
      "payable": false,
      "stateMutability": "view",
      "type": "function",
      "signature": "0x87801de6"
    },
    {
      "constant": false,
      "inputs": [
        {
          "name": "artworkHash",
          "type": "string"
        }
      ],
      "name": "license",
      "outputs": [],
      "payable": true,
      "stateMutability": "payable",
      "type": "function",
      "signature": "0xdcb4aef2"
    }
  ],
  "bytecode": "0x608060405234801561001057600080fd5b50611a2f806100206000396000f3fe608060405260043610610082576000357c0100000000000000000000000000000000000000000000000000000000900463ffffffff168062a715271461008757806303baed71146100b2578063871962dd146100db57806387801de614610106578063cab3344a14610149578063dcb4aef214610186578063fe5f67c0146101a2575b600080fd5b34801561009357600080fd5b5061009c6101cb565b6040516100a991906116ed565b60405180910390f35b3480156100be57600080fd5b506100d960048036036100d49190810190611358565b6102b4565b005b3480156100e757600080fd5b506100f06103b9565b6040516100fd9190611847565b60405180910390f35b34801561011257600080fd5b5061012d60048036036101289190810190611358565b6103c6565b604051610140979695949392919061170f565b60405180910390f35b34801561015557600080fd5b50610170600480360361016b9190810190611440565b6108ca565b60405161017d9190611785565b60405180910390f35b6101a0600480360361019b9190810190611358565b610985565b005b3480156101ae57600080fd5b506101c960048036036101c49190810190611399565b610e0c565b005b60606001805480602002602001604051908101604052809291908181526020016000905b828210156102ab578382906000526020600020018054600181600116156101000203166002900480601f0160208091040260200160405190810160405280929190818152602001828054600181600116156101000203166002900480156102975780601f1061026c57610100808354040283529160200191610297565b820191906000526020600020905b81548152906001019060200180831161027a57829003601f168201915b5050505050815260200190600101906101ef565b50505050905090565b80336000826040518082805190602001908083835b6020831015156102ee57805182526020820191506020810190506020830392506102c9565b6001836020036101000a038019825116818451168082178552505050505050905001915050908152602001604051809103902060000160009054906101000a900473ffffffffffffffffffffffffffffffffffffffff1673ffffffffffffffffffffffffffffffffffffffff168173ffffffffffffffffffffffffffffffffffffffff161415156103b4576040517f08c379a00000000000000000000000000000000000000000000000000000000081526004016103ab906117a7565b60405180910390fd5b505050565b6000600180549050905090565b600080606060008060008087600073ffffffffffffffffffffffffffffffffffffffff166000826040518082805190602001908083835b60208310151561042257805182526020820191506020810190506020830392506103fd565b6001836020036101000a038019825116818451168082178552505050505050905001915050908152602001604051809103902060000160009054906101000a900473ffffffffffffffffffffffffffffffffffffffff1673ffffffffffffffffffffffffffffffffffffffff16141515156104d2576040517f08c379a00000000000000000000000000000000000000000000000000000000081526004016104c9906117e7565b60405180910390fd5b6000896040518082805190602001908083835b60208310151561050a57805182526020820191506020810190506020830392506104e5565b6001836020036101000a03801982511681845116808217855250505050505090500191505090815260200160405180910390206001015460008a6040518082805190602001908083835b6020831015156105795780518252602082019150602081019050602083039250610554565b6001836020036101000a038019825116818451168082178552505050505050905001915050908152602001604051809103902060020160009054906101000a90047001000000000000000000000000000000000260008b6040518082805190602001908083835b60208310151561060557805182526020820191506020810190506020830392506105e0565b6001836020036101000a038019825116818451168082178552505050505050905001915050908152602001604051809103902060030160008c6040518082805190602001908083835b602083101515610673578051825260208201915060208101905060208303925061064e565b6001836020036101000a038019825116818451168082178552505050505050905001915050908152602001604051809103902060040160009054906101000a900463ffffffff1660008d6040518082805190602001908083835b6020831015156106f257805182526020820191506020810190506020830392506106cd565b6001836020036101000a03801982511681845116808217855250505050505090500191505090815260200160405180910390206005015460008e6040518082805190602001908083835b602083101515610761578051825260208201915060208101905060208303925061073c565b6001836020036101000a03801982511681845116808217855250505050505090500191505090815260200160405180910390206007015460008f6040518082805190602001908083835b6020831015156107d057805182526020820191506020810190506020830392506107ab565b6001836020036101000a038019825116818451168082178552505050505050905001915050908152602001604051809103902060080160009054906101000a900460ff16848054600181600116156101000203166002900480601f0160208091040260200160405190810160405280929190818152602001828054600181600116156101000203166002900480156108a95780601f1061087e576101008083540402835291602001916108a9565b820191906000526020600020905b81548152906001019060200180831161088c57829003601f168201915b50505050509450975097509750975097509750975050919395979092949650565b6001818154811015156108d957fe5b906000526020600020016000915090508054600181600116156101000203166002900480601f01602080910402602001604051908101604052809291908181526020018280546001816001161561010002031660029004801561097d5780601f106109525761010080835404028352916020019161097d565b820191906000526020600020905b81548152906001019060200180831161096057829003601f168201915b505050505081565b80600073ffffffffffffffffffffffffffffffffffffffff166000826040518082805190602001908083835b6020831015156109d657805182526020820191506020810190506020830392506109b1565b6001836020036101000a038019825116818451168082178552505050505050905001915050908152602001604051809103902060000160009054906101000a900473ffffffffffffffffffffffffffffffffffffffff1673ffffffffffffffffffffffffffffffffffffffff1614151515610a86576040517f08c379a0000000000000000000000000000000000000000000000000000000008152600401610a7d906117e7565b60405180910390fd5b336000836040518082805190602001908083835b602083101515610abf5780518252602082019150602081019050602083039250610a9a565b6001836020036101000a038019825116818451168082178552505050505050905001915050908152602001604051809103902060000160009054906101000a900473ffffffffffffffffffffffffffffffffffffffff168073ffffffffffffffffffffffffffffffffffffffff168273ffffffffffffffffffffffffffffffffffffffff1614151515610b87576040517f08c379a0000000000000000000000000000000000000000000000000000000008152600401610b7e906117c7565b60405180910390fd5b83600080826040518082805190602001908083835b602083101515610bc15780518252602082019150602081019050602083039250610b9c565b6001836020036101000a038019825116818451168082178552505050505050905001915050908152602001604051809103902060040160009054906101000a900463ffffffff1663ffffffff16111515610c50576040517f08c379a0000000000000000000000000000000000000000000000000000000008152600401610c4790611807565b60405180910390fd5b600034111515610c5c57fe5b3073ffffffffffffffffffffffffffffffffffffffff16313411151515610c7f57fe5b600080866040518082805190602001908083835b602083101515610cb85780518252602082019150602081019050602083039250610c93565b6001836020036101000a038019825116818451168082178552505050505050905001915050908152602001604051809103902090508060000160009054906101000a900473ffffffffffffffffffffffffffffffffffffffff1673ffffffffffffffffffffffffffffffffffffffff166108fc349081150290604051600060405180830381858888f19350505050158015610d57573d6000803e3d6000fd5b50348160060160008282540192505081905550806007016000815480929190600101919050555080600401600081819054906101000a900463ffffffff16809291906001900391906101000a81548163ffffffff021916908363ffffffff1602179055505080600701548160060154811515610dcf57fe5b0481600501819055507f1e4ba67414d8c4ef34051027972f0d71d72bcca71db252dac701c3a247dd12d760405160405180910390a1505050505050565b84600073ffffffffffffffffffffffffffffffffffffffff166000826040518082805190602001908083835b602083101515610e5d5780518252602082019150602081019050602083039250610e38565b6001836020036101000a038019825116818451168082178552505050505050905001915050908152602001604051809103902060000160009054906101000a900473ffffffffffffffffffffffffffffffffffffffff1673ffffffffffffffffffffffffffffffffffffffff16141515610f0c576040517f08c379a0000000000000000000000000000000000000000000000000000000008152600401610f0390611827565b60405180910390fd5b60008263ffffffff161415610f215760001991505b610120604051908101604052803373ffffffffffffffffffffffffffffffffffffffff168152602001868152602001856fffffffffffffffffffffffffffffffff191681526020018481526020018363ffffffff168152602001600081526020016000815260200160008152602001600015158152506000876040518082805190602001908083835b602083101515610fcf5780518252602082019150602081019050602083039250610faa565b6001836020036101000a038019825116818451168082178552505050505050905001915050908152602001604051809103902060008201518160000160006101000a81548173ffffffffffffffffffffffffffffffffffffffff021916908373ffffffffffffffffffffffffffffffffffffffff1602179055506020820151816001015560408201518160020160006101000a8154816fffffffffffffffffffffffffffffffff02191690837001000000000000000000000000000000009004021790555060608201518160030190805190602001906110b092919061118d565b5060808201518160040160006101000a81548163ffffffff021916908363ffffffff16021790555060a0820151816005015560c0820151816006015560e082015181600701556101008201518160080160006101000a81548160ff021916908315150217905550905050600186908060018154018082558091505090600182039060005260206000200160009091929091909150908051906020019061115792919061120d565b50507f6a14043a7c64b276dfa5ddf462dfae74b1b78abea94f6c16b69dabdde41bbfaf60405160405180910390a1505050505050565b828054600181600116156101000203166002900490600052602060002090601f016020900481019282601f106111ce57805160ff19168380011785556111fc565b828001600101855582156111fc579182015b828111156111fb5782518255916020019190600101906111e0565b5b509050611209919061128d565b5090565b828054600181600116156101000203166002900490600052602060002090601f016020900481019282601f1061124e57805160ff191683800117855561127c565b8280016001018555821561127c579182015b8281111561127b578251825591602001919060010190611260565b5b509050611289919061128d565b5090565b6112af91905b808211156112ab576000816000905550600101611293565b5090565b90565b60006112be8235611952565b905092915050565b60006112d2823561197e565b905092915050565b600082601f83011215156112ed57600080fd5b81356113006112fb8261188f565b611862565b9150808252602083016020830185838301111561131c57600080fd5b6113278382846119a2565b50505092915050565b600061133c8235611988565b905092915050565b60006113508235611992565b905092915050565b60006020828403121561136a57600080fd5b600082013567ffffffffffffffff81111561138457600080fd5b611390848285016112da565b91505092915050565b600080600080600060a086880312156113b157600080fd5b600086013567ffffffffffffffff8111156113cb57600080fd5b6113d7888289016112da565b95505060206113e8888289016112c6565b94505060406113f9888289016112b2565b935050606086013567ffffffffffffffff81111561141657600080fd5b611422888289016112da565b925050608061143388828901611344565b9150509295509295909350565b60006020828403121561145257600080fd5b600061146084828501611330565b91505092915050565b6000611474826118c8565b8084526020840193508360208202850161148d856118bb565b60005b848110156114c65783830388526114a883835161153a565b92506114b3826118e9565b9150602088019750600181019050611490565b508196508694505050505092915050565b6114e0816118f6565b82525050565b6114ef81611902565b82525050565b6114fe8161192e565b82525050565b600061150f826118de565b8084526115238160208601602086016119b1565b61152c816119e4565b602085010191505092915050565b6000611545826118d3565b8084526115598160208601602086016119b1565b611562816119e4565b602085010191505092915050565b6000602782527f4f6e6c7920617274776f726b206f776e65722063616e2064656c65746520746860208301527f6520696d616765000000000000000000000000000000000000000000000000006040830152606082019050919050565b6000602e82527f53656e64657220616e642072656365697665722063616e6e6f7420626520746860208301527f652073616d65206163636f756e740000000000000000000000000000000000006040830152606082019050919050565b6000601782527f417274776f726b20646f6573206e6f742065786973742e0000000000000000006020830152604082019050919050565b6000601882527f417274776f726b204c696d6974206973207265616368656400000000000000006020830152604082019050919050565b6000601782527f417274776f726b20616c7265616479206578697374732e0000000000000000006020830152604082019050919050565b6116d881611938565b82525050565b6116e781611942565b82525050565b600060208201905081810360008301526117078184611469565b905092915050565b600060e082019050611724600083018a6114f5565b61173160208301896114e6565b81810360408301526117438188611504565b905061175260608301876116de565b61175f60808301866116cf565b61176c60a08301856116cf565b61177960c08301846114d7565b98975050505050505050565b6000602082019050818103600083015261179f818461153a565b905092915050565b600060208201905081810360008301526117c081611570565b9050919050565b600060208201905081810360008301526117e0816115cd565b9050919050565b600060208201905081810360008301526118008161162a565b9050919050565b6000602082019050818103600083015261182081611661565b9050919050565b6000602082019050818103600083015261184081611698565b9050919050565b600060208201905061185c60008301846116cf565b92915050565b6000604051905081810181811067ffffffffffffffff8211171561188557600080fd5b8060405250919050565b600067ffffffffffffffff8211156118a657600080fd5b601f19601f8301169050602081019050919050565b6000602082019050919050565b600081519050919050565b600081519050919050565b600081519050919050565b6000602082019050919050565b60008115159050919050565b60007fffffffffffffffffffffffffffffffff0000000000000000000000000000000082169050919050565b6000819050919050565b6000819050919050565b600063ffffffff82169050919050565b60007fffffffffffffffffffffffffffffffff0000000000000000000000000000000082169050919050565b6000819050919050565b6000819050919050565b600063ffffffff82169050919050565b82818337600083830152505050565b60005b838110156119cf5780820151818401526020810190506119b4565b838111156119de576000848401525b50505050565b6000601f19601f830116905091905056fea265627a7a723058204f1c0bf309c2cef89b70952bb964d9a1b162c7057dfa3684683bd9658603be796c6578706572696d656e74616cf50037",
  "source": "pragma solidity ^0.5;\r\npragma experimental ABIEncoderV2; // Don't use in production\r\n\r\n// Library for IPFS Hash\r\n// IPFS hashes take 46 bytes of space.\r\nlibrary IpfsHash {\r\n    struct Hash {\r\n        bytes32 fHash;\r\n        bytes12 sHash;\r\n    }\r\n\r\n    function getHash(Hash memory h)\r\n    pure\r\n    public\r\n    returns(bytes32,bytes12)\r\n    {\r\n        return (h.fHash,h.sHash);\r\n    }\r\n}\r\n\r\n\r\ncontract ArtworkController {\r\n    using IpfsHash for IpfsHash.Hash;\r\n\r\n    event ArtworkLicensed();\r\n    event ArtworkSubscribed();\r\n    \r\n    struct Artwork {\r\n        address payable owner;\r\n        bytes32 imageName;\r\n        bytes16 imageAuthor;\r\n        string imageDescription;\r\n        uint32 transferLimit;\r\n        uint avgTransfer;\r\n        uint transferSum;\r\n        uint transferCount;\r\n        bool flexPayment;\r\n    }\r\n\r\n    mapping(string => Artwork) private artworks;\r\n    string[] public artworkHashes;\r\n\r\n    constructor() public {\r\n    }\r\n\r\n    modifier artworkExists(string memory artworkHash)\r\n    {\r\n        require(artworks[artworkHash].owner != address(0),\"Artwork does not exist.\");\r\n        _;\r\n    }\r\n\r\n    modifier artworkNotExists(string memory artworkHash)\r\n    {\r\n        require(artworks[artworkHash].owner == address(0),\"Artwork already exists.\");\r\n        _;\r\n    }\r\n\r\n    modifier artworkLimitAvailable(string memory artworkHash)\r\n    {\r\n        require(artworks[artworkHash].transferLimit > 0, \"Artwork Limit is reached\");\r\n        _;\r\n    }\r\n\r\n    modifier inDonationLimit(string memory artworkHash,uint amount)\r\n    {\r\n        uint avgTransfer = artworks[artworkHash].avgTransfer;\r\n        // int min = int(avgTransfer) - 5;\r\n        uint max = avgTransfer + 5;\r\n        // if(min < 1) // uint overflow\r\n        // {\r\n        //     min = 1;\r\n        // }\r\n        if(max < 0) // Prevent Overflow\r\n        {   \r\n            max = 1000;\r\n        }\r\n        require(amount > 0 && amount < max, \"Donation amount should be in the limits of average artwork donation.\");\r\n        _;\r\n    }\r\n\r\n    modifier differentPerson(address sender,address receiver)\r\n    {\r\n        require(sender != receiver, \"Sender and receiver cannot be the same account\");\r\n        _;\r\n    }\r\n\r\n    modifier onlyOwner(string memory artworkHash, address sender)\r\n    {\r\n        require(sender == artworks[artworkHash].owner, \"Only artwork owner can delete the image\");\r\n        _;\r\n    }\r\n\r\n    function addArtwork(string memory artworkHash,bytes32 imageName,bytes16 imageAuthor,string memory imageDescription,uint32 artTransferLimit)\r\n        public\r\n        artworkNotExists(artworkHash)\r\n    {\r\n        if(artTransferLimit == 0)\r\n            artTransferLimit = ~uint32(0); // Infinite transfer limit if 0\r\n\r\n        artworks[artworkHash] = Artwork(msg.sender,imageName,imageAuthor,imageDescription,artTransferLimit,0,0,0,false);\r\n        artworkHashes.push(artworkHash);\r\n        emit ArtworkSubscribed();\r\n    }\r\n\r\n    function deleteArtwork(string memory artworkHash)\r\n        public\r\n        onlyOwner(artworkHash,msg.sender)\r\n    {\r\n    }\r\n\r\n    function getArtworks() \r\n        view \r\n        public \r\n        returns(string[] memory) \r\n    {\r\n        return artworkHashes;\r\n    }\r\n\r\n    function getArtworksLength() \r\n        view \r\n        public \r\n        returns (uint) \r\n    {\r\n        return artworkHashes.length;\r\n    }\r\n\r\n    function getArtworkDetails(string memory artworkHash)\r\n        public\r\n        view\r\n        artworkExists(artworkHash)\r\n        returns(bytes32,bytes16,string memory,uint32,uint,uint,bool)\r\n    {\r\n        return (artworks[artworkHash].imageName,artworks[artworkHash].imageAuthor,artworks[artworkHash].imageDescription,\r\n                artworks[artworkHash].transferLimit,artworks[artworkHash].avgTransfer,\r\n                artworks[artworkHash].transferCount,artworks[artworkHash].flexPayment);\r\n    }  \r\n\r\n    function license(string memory artworkHash) \r\n        public \r\n        payable \r\n        artworkExists(artworkHash)\r\n        differentPerson(msg.sender,artworks[artworkHash].owner)\r\n        artworkLimitAvailable(artworkHash)\r\n        // inDonationLimit(artworkId,msg.value)\r\n    {\r\n        assert(msg.value > 0);\r\n        assert(msg.value <= address(this).balance);\r\n\r\n        Artwork storage artwork = artworks[artworkHash];\r\n        artwork.owner.transfer(msg.value);\r\n        artwork.transferSum += msg.value;\r\n        artwork.transferCount++;\r\n        artwork.transferLimit--;\r\n        artwork.avgTransfer = artwork.transferSum / artwork.transferCount;\r\n        emit ArtworkLicensed();\r\n    }\r\n\r\n}",
  "sourcePath": "C:/Users/berka/Documents/Code/ArtChain/contracts/ArtworkController.sol",
  "compiler": {
    "name": "solc",
    "version": "0.5.0+commit.1d4f565a.Emscripten.clang"
  },
  "schemaVersion": "3.0.3",
  "updatedAt": "2019-04-25T20:43:23.157Z",
  "devdoc": {
    "methods": {}
  },
  "userdoc": {
    "methods": {}
  }
}