{
  "contractName": "ArtworkController",
  "abi": [
    {
      "constant": true,
      "inputs": [
        {
          "name": "",
          "type": "uint256"
        }
      ],
      "name": "artworkHashes",
      "outputs": [
        {
          "name": "",
          "type": "string"
        }
      ],
      "payable": false,
      "stateMutability": "view",
      "type": "function",
      "signature": "0xcab3344a"
    },
    {
      "inputs": [
        {
          "name": "accountControllerContractAddress",
          "type": "address"
        }
      ],
      "payable": false,
      "stateMutability": "nonpayable",
      "type": "constructor",
      "signature": "constructor"
    },
    {
      "anonymous": false,
      "inputs": [],
      "name": "ArtworkLicensed",
      "type": "event",
      "signature": "0x1e4ba67414d8c4ef34051027972f0d71d72bcca71db252dac701c3a247dd12d7"
    },
    {
      "anonymous": false,
      "inputs": [],
      "name": "ArtworkSubscribed",
      "type": "event",
      "signature": "0x6a14043a7c64b276dfa5ddf462dfae74b1b78abea94f6c16b69dabdde41bbfaf"
    },
    {
      "constant": false,
      "inputs": [
        {
          "name": "imageHash",
          "type": "string"
        },
        {
          "name": "imageName",
          "type": "bytes32"
        },
        {
          "name": "imageAuthor",
          "type": "bytes16"
        },
        {
          "name": "imageDescription",
          "type": "string"
        },
        {
          "name": "imageUploadDate",
          "type": "uint256"
        },
        {
          "name": "imageTransferLimit",
          "type": "uint256"
        },
        {
          "name": "imageFee",
          "type": "uint256"
        }
      ],
      "name": "addArtwork",
      "outputs": [],
      "payable": false,
      "stateMutability": "nonpayable",
      "type": "function",
      "signature": "0x75360fa5"
    },
    {
      "constant": false,
      "inputs": [
        {
          "name": "imageHash",
          "type": "string"
        }
      ],
      "name": "deleteArtwork",
      "outputs": [],
      "payable": false,
      "stateMutability": "nonpayable",
      "type": "function",
      "signature": "0x03baed71"
    },
    {
      "constant": true,
      "inputs": [],
      "name": "getArtworks",
      "outputs": [
        {
          "name": "",
          "type": "string[]"
        }
      ],
      "payable": false,
      "stateMutability": "view",
      "type": "function",
      "signature": "0x00a71527"
    },
    {
      "constant": true,
      "inputs": [],
      "name": "getArtworksLength",
      "outputs": [
        {
          "name": "",
          "type": "uint256"
        }
      ],
      "payable": false,
      "stateMutability": "view",
      "type": "function",
      "signature": "0x871962dd"
    },
    {
      "constant": true,
      "inputs": [
        {
          "name": "imageHash",
          "type": "string"
        }
      ],
      "name": "getArtworkDetails",
      "outputs": [
        {
          "name": "",
          "type": "bytes32"
        },
        {
          "name": "",
          "type": "bytes16"
        },
        {
          "name": "",
          "type": "string"
        },
        {
          "name": "",
          "type": "uint256"
        },
        {
          "components": [
            {
              "name": "fee",
              "type": "uint256"
            },
            {
              "name": "avgTransfer",
              "type": "uint256"
            },
            {
              "name": "transferLimit",
              "type": "uint256"
            },
            {
              "name": "transferCount",
              "type": "uint256"
            }
          ],
          "name": "",
          "type": "tuple"
        }
      ],
      "payable": false,
      "stateMutability": "view",
      "type": "function",
      "signature": "0x87801de6"
    },
    {
      "constant": false,
      "inputs": [
        {
          "name": "imageHash",
          "type": "string"
        }
      ],
      "name": "license",
      "outputs": [],
      "payable": true,
      "stateMutability": "payable",
      "type": "function",
      "signature": "0xdcb4aef2"
    }
  ],
  "bytecode": "0x60806040523480156200001157600080fd5b5060405160208062001b93833981018060405262000033919081019062000090565b806000806101000a81548173ffffffffffffffffffffffffffffffffffffffff021916908373ffffffffffffffffffffffffffffffffffffffff16021790555050620000f0565b6000620000888251620000dc565b905092915050565b600060208284031215620000a357600080fd5b6000620000b3848285016200007a565b91505092915050565b600073ffffffffffffffffffffffffffffffffffffffff82169050919050565b6000620000e982620000bc565b9050919050565b611a9380620001006000396000f3fe608060405260043610610082576000357c0100000000000000000000000000000000000000000000000000000000900463ffffffff168062a715271461008757806303baed71146100b257806375360fa5146100db578063871962dd1461010457806387801de61461012f578063cab3344a14610170578063dcb4aef2146101ad575b600080fd5b34801561009357600080fd5b5061009c6101c9565b6040516100a99190611778565b60405180910390f35b3480156100be57600080fd5b506100d960048036036100d49190810190611328565b6102b2565b005b3480156100e757600080fd5b5061010260048036036100fd9190810190611369565b6103b7565b005b34801561011057600080fd5b50610119610721565b60405161012691906118d7565b60405180910390f35b34801561013b57600080fd5b5061015660048036036101519190810190611328565b61072e565b60405161016795949392919061179a565b60405180910390f35b34801561017c57600080fd5b5061019760048036036101929190810190611437565b610b6b565b6040516101a491906117f5565b60405180910390f35b6101c760048036036101c29190810190611328565b610c26565b005b60606002805480602002602001604051908101604052809291908181526020016000905b828210156102a9578382906000526020600020018054600181600116156101000203166002900480601f0160208091040260200160405190810160405280929190818152602001828054600181600116156101000203166002900480156102955780601f1061026a57610100808354040283529160200191610295565b820191906000526020600020905b81548152906001019060200180831161027857829003601f168201915b5050505050815260200190600101906101ed565b50505050905090565b80336001826040518082805190602001908083835b6020831015156102ec57805182526020820191506020810190506020830392506102c7565b6001836020036101000a038019825116818451168082178552505050505050905001915050908152602001604051809103902060000160009054906101000a900473ffffffffffffffffffffffffffffffffffffffff1673ffffffffffffffffffffffffffffffffffffffff168173ffffffffffffffffffffffffffffffffffffffff161415156103b2576040517f08c379a00000000000000000000000000000000000000000000000000000000081526004016103a990611817565b60405180910390fd5b505050565b86600073ffffffffffffffffffffffffffffffffffffffff166001826040518082805190602001908083835b60208310151561040857805182526020820191506020810190506020830392506103e3565b6001836020036101000a038019825116818451168082178552505050505050905001915050908152602001604051809103902060000160009054906101000a900473ffffffffffffffffffffffffffffffffffffffff1673ffffffffffffffffffffffffffffffffffffffff161415156104b7576040517f08c379a00000000000000000000000000000000000000000000000000000000081526004016104ae906118b7565b60405180910390fd5b60008314156104cc5760001963ffffffff1692505b6104d4611148565b608060405190810160405280848152602001600081526020018581526020016000815250905060c0604051908101604052803373ffffffffffffffffffffffffffffffffffffffff168152602001898152602001886fffffffffffffffffffffffffffffffff191681526020018781526020018681526020018281525060018a6040518082805190602001908083835b6020831015156105895780518252602082019150602081019050602083039250610564565b6001836020036101000a038019825116818451168082178552505050505050905001915050908152602001604051809103902060008201518160000160006101000a81548173ffffffffffffffffffffffffffffffffffffffff021916908373ffffffffffffffffffffffffffffffffffffffff1602179055506020820151816001015560408201518160020160006101000a8154816fffffffffffffffffffffffffffffffff021916908370010000000000000000000000000000000090040217905550606082015181600301908051906020019061066a929190611171565b506080820151816004015560a08201518160050160008201518160000155602082015181600101556040820151816002015560608201518160030155505090505060028990806001815401808255809150509060018203906000526020600020016000909192909190915090805190602001906106e89291906111f1565b50507f6a14043a7c64b276dfa5ddf462dfae74b1b78abea94f6c16b69dabdde41bbfaf60405160405180910390a1505050505050505050565b6000600280549050905090565b6000806060600061073d611148565b85600073ffffffffffffffffffffffffffffffffffffffff166001826040518082805190602001908083835b60208310151561078e5780518252602082019150602081019050602083039250610769565b6001836020036101000a038019825116818451168082178552505050505050905001915050908152602001604051809103902060000160009054906101000a900473ffffffffffffffffffffffffffffffffffffffff1673ffffffffffffffffffffffffffffffffffffffff161415151561083e576040517f08c379a000000000000000000000000000000000000000000000000000000000815260040161083590611877565b60405180910390fd5b6001876040518082805190602001908083835b6020831015156108765780518252602082019150602081019050602083039250610851565b6001836020036101000a0380198251168184511680821785525050505050509050019150509081526020016040518091039020600101546001886040518082805190602001908083835b6020831015156108e557805182526020820191506020810190506020830392506108c0565b6001836020036101000a038019825116818451168082178552505050505050905001915050908152602001604051809103902060020160009054906101000a9004700100000000000000000000000000000000026001896040518082805190602001908083835b602083101515610971578051825260208201915060208101905060208303925061094c565b6001836020036101000a038019825116818451168082178552505050505050905001915050908152602001604051809103902060030160018a6040518082805190602001908083835b6020831015156109df57805182526020820191506020810190506020830392506109ba565b6001836020036101000a03801982511681845116808217855250505050505090500191505090815260200160405180910390206004015460018b6040518082805190602001908083835b602083101515610a4e5780518252602082019150602081019050602083039250610a29565b6001836020036101000a0380198251168184511680821785525050505050509050019150509081526020016040518091039020600501828054600181600116156101000203166002900480601f016020809104026020016040519081016040528092919081815260200182805460018160011615610100020316600290048015610b195780601f10610aee57610100808354040283529160200191610b19565b820191906000526020600020905b815481529060010190602001808311610afc57829003601f168201915b5050505050925080608060405190810160405290816000820154815260200160018201548152602001600282015481526020016003820154815250509050955095509550955095505091939590929450565b600281815481101515610b7a57fe5b906000526020600020016000915090508054600181600116156101000203166002900480601f016020809104026020016040519081016040528092919081815260200182805460018160011615610100020316600290048015610c1e5780601f10610bf357610100808354040283529160200191610c1e565b820191906000526020600020905b815481529060010190602001808311610c0157829003601f168201915b505050505081565b33816001816040518082805190602001908083835b602083101515610c605780518252602082019150602081019050602083039250610c3b565b6001836020036101000a038019825116818451168082178552505050505050905001915050908152602001604051809103902060000160009054906101000a900473ffffffffffffffffffffffffffffffffffffffff1673ffffffffffffffffffffffffffffffffffffffff168273ffffffffffffffffffffffffffffffffffffffff1614151515610d27576040517f08c379a0000000000000000000000000000000000000000000000000000000008152600401610d1e90611857565b60405180910390fd5b82600073ffffffffffffffffffffffffffffffffffffffff166001826040518082805190602001908083835b602083101515610d785780518252602082019150602081019050602083039250610d53565b6001836020036101000a038019825116818451168082178552505050505050905001915050908152602001604051809103902060000160009054906101000a900473ffffffffffffffffffffffffffffffffffffffff1673ffffffffffffffffffffffffffffffffffffffff1614151515610e28576040517f08c379a0000000000000000000000000000000000000000000000000000000008152600401610e1f90611877565b60405180910390fd5b8360006001826040518082805190602001908083835b602083101515610e635780518252602082019150602081019050602083039250610e3e565b6001836020036101000a038019825116818451168082178552505050505050905001915050908152602001604051809103902060050160020154111515610edf576040517f08c379a0000000000000000000000000000000000000000000000000000000008152600401610ed690611897565b60405180910390fd5b843460006001836040518082805190602001908083835b602083101515610f1b5780518252602082019150602081019050602083039250610ef6565b6001836020036101000a03801982511681845116808217855250505050505090500191505090815260200160405180910390206005016000015490506000811480610f6557508181145b1515610fa6576040517f08c379a0000000000000000000000000000000000000000000000000000000008152600401610f9d90611837565b60405180910390fd5b600034111515610fb257fe5b3073ffffffffffffffffffffffffffffffffffffffff16313411151515610fd557fe5b60006001896040518082805190602001908083835b60208310151561100f5780518252602082019150602081019050602083039250610fea565b6001836020036101000a038019825116818451168082178552505050505050905001915050908152602001604051809103902090508060000160009054906101000a900473ffffffffffffffffffffffffffffffffffffffff1673ffffffffffffffffffffffffffffffffffffffff166108fc349081150290604051600060405180830381858888f193505050501580156110ae573d6000803e3d6000fd5b506001816005016003015401348260050160030154836005016001015402018115156110d657fe5b04816005016001018190555080600501600301600081548092919060010191905055508060050160020160008154809291906001900391905055507f1e4ba67414d8c4ef34051027972f0d71d72bcca71db252dac701c3a247dd12d760405160405180910390a1505050505050505050565b608060405190810160405280600081526020016000815260200160008152602001600081525090565b828054600181600116156101000203166002900490600052602060002090601f016020900481019282601f106111b257805160ff19168380011785556111e0565b828001600101855582156111e0579182015b828111156111df5782518255916020019190600101906111c4565b5b5090506111ed9190611271565b5090565b828054600181600116156101000203166002900490600052602060002090601f016020900481019282601f1061123257805160ff1916838001178555611260565b82800160010185558215611260579182015b8281111561125f578251825591602001919060010190611244565b5b50905061126d9190611271565b5090565b61129391905b8082111561128f576000816000905550600101611277565b5090565b90565b60006112a282356119c6565b905092915050565b60006112b682356119f2565b905092915050565b600082601f83011215156112d157600080fd5b81356112e46112df8261191f565b6118f2565b9150808252602083016020830185838301111561130057600080fd5b61130b838284611a06565b50505092915050565b600061132082356119fc565b905092915050565b60006020828403121561133a57600080fd5b600082013567ffffffffffffffff81111561135457600080fd5b611360848285016112be565b91505092915050565b600080600080600080600060e0888a03121561138457600080fd5b600088013567ffffffffffffffff81111561139e57600080fd5b6113aa8a828b016112be565b97505060206113bb8a828b016112aa565b96505060406113cc8a828b01611296565b955050606088013567ffffffffffffffff8111156113e957600080fd5b6113f58a828b016112be565b94505060806114068a828b01611314565b93505060a06114178a828b01611314565b92505060c06114288a828b01611314565b91505092959891949750929550565b60006020828403121561144957600080fd5b600061145784828501611314565b91505092915050565b600061146b82611958565b808452602084019350836020820285016114848561194b565b60005b848110156114bd57838303885261149f838351611522565b92506114aa82611979565b9150602088019750600181019050611487565b508196508694505050505092915050565b6114d781611986565b82525050565b6114e6816119b2565b82525050565b60006114f78261196e565b80845261150b816020860160208601611a15565b61151481611a48565b602085010191505092915050565b600061152d82611963565b808452611541816020860160208601611a15565b61154a81611a48565b602085010191505092915050565b6000602782527f4f6e6c7920617274776f726b206f776e65722063616e2064656c65746520746860208301527f6520696d616765000000000000000000000000000000000000000000000000006040830152606082019050919050565b6000602682527f476976656e2076616c756520646f6573206e6f74206d65657420617274776f7260208301527f6b206665652e00000000000000000000000000000000000000000000000000006040830152606082019050919050565b6000602e82527f53656e64657220616e642072656365697665722063616e6e6f7420626520746860208301527f652073616d65206163636f756e740000000000000000000000000000000000006040830152606082019050919050565b6000601782527f417274776f726b20646f6573206e6f742065786973742e0000000000000000006020830152604082019050919050565b6000601882527f417274776f726b204c696d6974206973207265616368656400000000000000006020830152604082019050919050565b6000601782527f417274776f726b20616c7265616479206578697374732e0000000000000000006020830152604082019050919050565b60808201600082015161172a6000850182611769565b50602082015161173d6020850182611769565b5060408201516117506040850182611769565b5060608201516117636060850182611769565b50505050565b611772816119bc565b82525050565b600060208201905081810360008301526117928184611460565b905092915050565b6000610100820190506117b060008301886114dd565b6117bd60208301876114ce565b81810360408301526117cf81866114ec565b90506117de6060830185611769565b6117eb6080830184611714565b9695505050505050565b6000602082019050818103600083015261180f8184611522565b905092915050565b6000602082019050818103600083015261183081611558565b9050919050565b60006020820190508181036000830152611850816115b5565b9050919050565b6000602082019050818103600083015261187081611612565b9050919050565b600060208201905081810360008301526118908161166f565b9050919050565b600060208201905081810360008301526118b0816116a6565b9050919050565b600060208201905081810360008301526118d0816116dd565b9050919050565b60006020820190506118ec6000830184611769565b92915050565b6000604051905081810181811067ffffffffffffffff8211171561191557600080fd5b8060405250919050565b600067ffffffffffffffff82111561193657600080fd5b601f19601f8301169050602081019050919050565b6000602082019050919050565b600081519050919050565b600081519050919050565b600081519050919050565b6000602082019050919050565b60007fffffffffffffffffffffffffffffffff0000000000000000000000000000000082169050919050565b6000819050919050565b6000819050919050565b60007fffffffffffffffffffffffffffffffff0000000000000000000000000000000082169050919050565b6000819050919050565b6000819050919050565b82818337600083830152505050565b60005b83811015611a33578082015181840152602081019050611a18565b83811115611a42576000848401525b50505050565b6000601f19601f830116905091905056fea265627a7a72305820e63ef89d897638774e5e5fabb699d4941842f9a8e954c6d76dc32f7c3b25469b6c6578706572696d656e74616cf50037",
  "source": "pragma solidity ^0.5;\r\npragma experimental ABIEncoderV2; // Don't use in production\r\n\r\nimport \"./AccountController.sol\";\r\n\r\n// Library for IPFS Hash\r\n// IPFS hashes take 46 bytes of space.\r\nlibrary IpfsHash {\r\n    struct Hash {\r\n        bytes32 fHash;\r\n        bytes12 sHash;\r\n    }\r\n\r\n    function getHash(Hash memory h)\r\n    pure\r\n    public\r\n    returns(bytes32,bytes12)\r\n    {\r\n        return (h.fHash,h.sHash);\r\n    }\r\n}\r\n\r\n\r\ncontract ArtworkController {\r\n    AccountController accountController;\r\n\r\n\r\n    using IpfsHash for IpfsHash.Hash;\r\n\r\n    event ArtworkLicensed();\r\n    event ArtworkSubscribed();\r\n    \r\n    uint constant ones = ~uint32(0);\r\n    uint constant detailClear = ~uint(0) << 128;\r\n\r\n    struct Artwork {\r\n        address payable owner;\r\n        bytes32 imageName;\r\n        bytes16 imageAuthor;\r\n        string imageDescription;\r\n        uint uploadDate;\r\n        ArtworkDetails details;\r\n    }\r\n\r\n    struct ArtworkDetails {\r\n        uint fee;\r\n        uint avgTransfer;\r\n        uint transferLimit;\r\n        uint transferCount;\r\n    }\r\n\r\n    mapping(string => Artwork) private artworks;\r\n    string[] public artworkHashes;\r\n\r\n    constructor(address accountControllerContractAddress) public {\r\n        accountController = AccountController(accountControllerContractAddress);\r\n    }\r\n\r\n    modifier artworkExists(string memory imageHash)\r\n    {\r\n        require(artworks[imageHash].owner != address(0),\"Artwork does not exist.\");\r\n        _;\r\n    }\r\n\r\n    modifier artworkNotExists(string memory imageHash)\r\n    {\r\n        require(artworks[imageHash].owner == address(0),\"Artwork already exists.\");\r\n        _;\r\n    }\r\n\r\n    modifier artworkLimitAvailable(string memory imageHash)\r\n    {\r\n        require(artworks[imageHash].details.transferLimit > 0, \"Artwork Limit is reached\");\r\n        _;\r\n    }\r\n\r\n    modifier inDonationLimit(string memory imageHash,uint amount)\r\n    {\r\n        uint avgTransfer = artworks[imageHash].details.avgTransfer;\r\n        // int min = int(avgTransfer) - 5;\r\n        uint max = avgTransfer + 5;\r\n        // if(min < 1) // uint overflow\r\n        // {\r\n        //     min = 1;\r\n        // }\r\n        if(max < 0) // Prevent Overflow\r\n        {   \r\n            max = 1000;\r\n        }\r\n        require(amount > 0 && amount < max, \"Donation amount should be in the limits of average artwork donation.\");\r\n        _;\r\n    }\r\n\r\n    modifier valueMeetsfee(string memory imageHash,uint amount)\r\n    {\r\n        uint fee = artworks[imageHash].details.fee;\r\n        require(fee == 0 || fee == amount,\"Given value does not meet artwork fee.\");\r\n        _;\r\n    }\r\n\r\n    modifier differentPerson(address sender,string memory imageHash)\r\n    {\r\n        require(sender != artworks[imageHash].owner, \"Sender and receiver cannot be the same account\");\r\n        _;\r\n    }\r\n\r\n    modifier onlyOwner(string memory imageHash, address sender)\r\n    {\r\n        require(sender == artworks[imageHash].owner, \"Only artwork owner can delete the image\");\r\n        _;\r\n    }\r\n\r\n    function addArtwork(string memory imageHash,bytes32 imageName,bytes16 imageAuthor,string memory imageDescription,uint imageUploadDate,uint imageTransferLimit,uint imageFee)\r\n        public\r\n        artworkNotExists(imageHash)\r\n    {\r\n        if(imageTransferLimit == 0)\r\n            imageTransferLimit = ones; // Infinite transfer limit if 0\r\n\r\n        ArtworkDetails memory details = ArtworkDetails(imageFee,0,imageTransferLimit,0);\r\n        artworks[imageHash] = Artwork(msg.sender,imageName,imageAuthor,imageDescription,imageUploadDate,details);\r\n        artworkHashes.push(imageHash);\r\n        emit ArtworkSubscribed();\r\n    }\r\n\r\n    function deleteArtwork(string memory imageHash)\r\n        public\r\n        onlyOwner(imageHash,msg.sender)\r\n    {\r\n    }\r\n\r\n    function getArtworks() \r\n        view \r\n        public \r\n        returns(string[] memory) \r\n    {\r\n        return artworkHashes;\r\n    }\r\n\r\n    function getArtworksLength() \r\n        view \r\n        public \r\n        returns (uint) \r\n    {\r\n        return artworkHashes.length;\r\n    }\r\n\r\n    function getArtworkDetails(string memory imageHash)\r\n        public\r\n        view\r\n        artworkExists(imageHash)\r\n        returns(bytes32,bytes16,string memory,uint,ArtworkDetails memory)\r\n    {\r\n        return (artworks[imageHash].imageName,\r\n                artworks[imageHash].imageAuthor,\r\n                artworks[imageHash].imageDescription,\r\n                artworks[imageHash].uploadDate,\r\n                artworks[imageHash].details);\r\n    }  \r\n\r\n    function license(string memory imageHash) \r\n        public \r\n        payable \r\n        differentPerson(msg.sender,imageHash)\r\n        artworkExists(imageHash)\r\n        artworkLimitAvailable(imageHash)\r\n        valueMeetsfee(imageHash,msg.value)\r\n        // inDonationLimit(artworkId,msg.value)\r\n    {\r\n        assert(msg.value > 0);\r\n        assert(msg.value <= address(this).balance);\r\n\r\n        Artwork storage artwork = artworks[imageHash];\r\n        artwork.owner.transfer(msg.value);\r\n\r\n        artwork.details.avgTransfer = ((artwork.details.avgTransfer * artwork.details.transferCount) + msg.value) / (artwork.details.transferCount + 1);\r\n        artwork.details.transferCount++;\r\n        artwork.details.transferLimit--;\r\n\r\n        emit ArtworkLicensed();\r\n    }\r\n\r\n}",
  "sourcePath": "C:/Users/berka/Documents/Code/ArtChain/contracts/ArtworkController.sol",
  "compiler": {
    "name": "solc",
    "version": "0.5.0+commit.1d4f565a.Emscripten.clang"
  },
  "schemaVersion": "3.0.3",
  "updatedAt": "2019-04-28T20:21:54.639Z",
  "devdoc": {
    "methods": {}
  },
  "userdoc": {
    "methods": {}
  }
}