{
  "contractName": "ArtworkController",
  "abi": [
    {
      "constant": true,
      "inputs": [
        {
          "name": "",
          "type": "uint256"
        }
      ],
      "name": "artworks",
      "outputs": [
        {
          "name": "hash",
          "type": "address"
        },
        {
          "name": "owner",
          "type": "address"
        },
        {
          "name": "imageName",
          "type": "string"
        },
        {
          "name": "flexPayment",
          "type": "bool"
        },
        {
          "name": "avgTransfer",
          "type": "uint256"
        },
        {
          "name": "transferSum",
          "type": "uint256"
        },
        {
          "name": "transferCount",
          "type": "uint256"
        }
      ],
      "payable": false,
      "stateMutability": "view",
      "type": "function",
      "signature": "0x4b602673"
    },
    {
      "inputs": [],
      "payable": false,
      "stateMutability": "nonpayable",
      "type": "constructor",
      "signature": "constructor"
    },
    {
      "anonymous": false,
      "inputs": [],
      "name": "ArtworkLicensed",
      "type": "event",
      "signature": "0x1e4ba67414d8c4ef34051027972f0d71d72bcca71db252dac701c3a247dd12d7"
    },
    {
      "anonymous": false,
      "inputs": [],
      "name": "ArtworkSubscribed",
      "type": "event",
      "signature": "0x6a14043a7c64b276dfa5ddf462dfae74b1b78abea94f6c16b69dabdde41bbfaf"
    },
    {
      "constant": false,
      "inputs": [
        {
          "name": "imageName",
          "type": "string"
        }
      ],
      "name": "addArtwork",
      "outputs": [],
      "payable": false,
      "stateMutability": "nonpayable",
      "type": "function",
      "signature": "0xfd397717"
    },
    {
      "constant": false,
      "inputs": [],
      "name": "fund",
      "outputs": [
        {
          "name": "success",
          "type": "bool"
        }
      ],
      "payable": true,
      "stateMutability": "payable",
      "type": "function",
      "signature": "0xb60d4288"
    },
    {
      "constant": false,
      "inputs": [
        {
          "name": "artworkId",
          "type": "uint256"
        }
      ],
      "name": "license",
      "outputs": [],
      "payable": true,
      "stateMutability": "payable",
      "type": "function",
      "signature": "0x178ed284"
    }
  ],
  "bytecode": "0x6080604052600060015534801561001557600080fd5b50610a3f806100256000396000f3fe608060405260043610610062576000357c0100000000000000000000000000000000000000000000000000000000900463ffffffff168063178ed284146100675780634b60267314610095578063b60d4288146101cf578063fd397717146101f1575b600080fd5b6100936004803603602081101561007d57600080fd5b81019080803590602001909291905050506102b9565b005b3480156100a157600080fd5b506100ce600480360360208110156100b857600080fd5b81019080803590602001909291905050506105ba565b604051808873ffffffffffffffffffffffffffffffffffffffff1673ffffffffffffffffffffffffffffffffffffffff1681526020018773ffffffffffffffffffffffffffffffffffffffff1673ffffffffffffffffffffffffffffffffffffffff1681526020018060200186151515158152602001858152602001848152602001838152602001828103825287818151815260200191508051906020019080838360005b8381101561018e578082015181840152602081019050610173565b50505050905090810190601f1680156101bb5780820380516001836020036101000a031916815260200191505b509850505050505050505060405180910390f35b6101d76106e1565b604051808215151515815260200191505060405180910390f35b3480156101fd57600080fd5b506102b76004803603602081101561021457600080fd5b810190808035906020019064010000000081111561023157600080fd5b82018360208201111561024357600080fd5b8035906020019184600183028401116401000000008311171561026557600080fd5b91908080601f016020809104026020016040519081016040528093929190818152602001838380828437600081840152601f19601f8201169050808301925050505050505091929192905050506106ea565b005b80600073ffffffffffffffffffffffffffffffffffffffff1660008083815260200190815260200160002060010160009054906101000a900473ffffffffffffffffffffffffffffffffffffffff1673ffffffffffffffffffffffffffffffffffffffff1614151515610394576040517f08c379a00000000000000000000000000000000000000000000000000000000081526004018080602001828103825260178152602001807f417274776f726b20646f6573206e6f742065786973742e00000000000000000081525060200191505060405180910390fd5b3360008084815260200190815260200160002060010160009054906101000a900473ffffffffffffffffffffffffffffffffffffffff168073ffffffffffffffffffffffffffffffffffffffff168273ffffffffffffffffffffffffffffffffffffffff1614151515610495576040517f08c379a000000000000000000000000000000000000000000000000000000000815260040180806020018281038252602e8152602001807f53656e64657220616e642072656365697665722063616e6e6f7420626520746881526020017f652073616d65206163636f756e7400000000000000000000000000000000000081525060400191505060405180910390fd5b6000341115156104a157fe5b3073ffffffffffffffffffffffffffffffffffffffff163134111515156104c457fe5b600080600086815260200190815260200160002090508060010160009054906101000a900473ffffffffffffffffffffffffffffffffffffffff1673ffffffffffffffffffffffffffffffffffffffff166108fc349081150290604051600060405180830381858888f19350505050158015610544573d6000803e3d6000fd5b5034816005016000828254019250508190555080600601600081548092919060010191905055508060060154816005015481151561057e57fe5b0481600401819055507f1e4ba67414d8c4ef34051027972f0d71d72bcca71db252dac701c3a247dd12d760405160405180910390a15050505050565b60006020528060005260406000206000915090508060000160009054906101000a900473ffffffffffffffffffffffffffffffffffffffff16908060010160009054906101000a900473ffffffffffffffffffffffffffffffffffffffff1690806002018054600181600116156101000203166002900480601f0160208091040260200160405190810160405280929190818152602001828054600181600116156101000203166002900480156106b25780601f10610687576101008083540402835291602001916106b2565b820191906000526020600020905b81548152906001019060200180831161069557829003601f168201915b5050505050908060030160009054906101000a900460ff16908060040154908060050154908060060154905087565b60006001905090565b600154600073ffffffffffffffffffffffffffffffffffffffff1660008083815260200190815260200160002060010160009054906101000a900473ffffffffffffffffffffffffffffffffffffffff1673ffffffffffffffffffffffffffffffffffffffff161415156107c6576040517f08c379a00000000000000000000000000000000000000000000000000000000081526004018080602001828103825260178152602001807f417274776f726b20616c7265616479206578697374732e00000000000000000081525060200191505060405180910390fd5b60e0604051908101604052803373ffffffffffffffffffffffffffffffffffffffff1681526020013373ffffffffffffffffffffffffffffffffffffffff16815260200183815260200160001515815260200160008152602001600081526020016000815250600080600154815260200190815260200160002060008201518160000160006101000a81548173ffffffffffffffffffffffffffffffffffffffff021916908373ffffffffffffffffffffffffffffffffffffffff16021790555060208201518160010160006101000a81548173ffffffffffffffffffffffffffffffffffffffff021916908373ffffffffffffffffffffffffffffffffffffffff16021790555060408201518160020190805190602001906108ea92919061096e565b5060608201518160030160006101000a81548160ff0219169083151502179055506080820151816004015560a0820151816005015560c082015181600601559050506001600081548092919060010191905055507f6a14043a7c64b276dfa5ddf462dfae74b1b78abea94f6c16b69dabdde41bbfaf60405160405180910390a15050565b828054600181600116156101000203166002900490600052602060002090601f016020900481019282601f106109af57805160ff19168380011785556109dd565b828001600101855582156109dd579182015b828111156109dc5782518255916020019190600101906109c1565b5b5090506109ea91906109ee565b5090565b610a1091905b80821115610a0c5760008160009055506001016109f4565b5090565b9056fea165627a7a7230582030f4b0d3be2f5611c4591793cb66f4ff0a3b9a1d409be1b03eec76d51ab129680029",
  "source": "pragma solidity ^0.5;\r\n\r\ncontract ArtworkController {\r\n\r\n    event ArtworkLicensed();\r\n    event ArtworkSubscribed();\r\n    \r\n    struct Artwork {\r\n        address hash;\r\n        address payable owner;\r\n        string imageName;\r\n        bool flexPayment;\r\n        uint avgTransfer;\r\n        uint transferSum;\r\n        uint transferCount;\r\n    }\r\n\r\n    mapping(uint => Artwork) public artworks;\r\n    uint private artworkCount = 0;\r\n\r\n    constructor() public {\r\n    }\r\n\r\n    modifier artworkExists(uint artworkId)\r\n    {\r\n        require(artworks[artworkId].owner != address(0),\"Artwork does not exist.\");\r\n        _;\r\n    }\r\n\r\n    modifier artworkNotExists(uint artworkId)\r\n    {\r\n        require(artworks[artworkId].owner == address(0),\"Artwork already exists.\");\r\n        _;\r\n    }\r\n\r\n    modifier inDonationLimit(uint artworkId,uint amount)\r\n    {\r\n        uint avgTransfer = artworks[artworkId].avgTransfer;\r\n        // int min = int(avgTransfer) - 5;\r\n        uint max = avgTransfer + 5;\r\n        // if(min < 1) // uint overflow\r\n        // {\r\n        //     min = 1;\r\n        // }\r\n        if(max < 0) // Prevent Overflow\r\n        {   \r\n            max = 1000;\r\n        }\r\n        require(amount > 0 && amount < max, \"Donation amount should be in the limits of average artwork donation.\");\r\n        _;\r\n    }\r\n\r\n    modifier differentPerson(address sender,address receiver)\r\n    {\r\n        require(sender != receiver, \"Sender and receiver cannot be the same account\");\r\n        _;\r\n    }\r\n\r\n    function addArtwork(string memory imageName)\r\n        public\r\n        artworkNotExists(artworkCount)\r\n    {\r\n        artworks[artworkCount] = Artwork(msg.sender,msg.sender,imageName,false,0,0,0);\r\n        artworkCount++;\r\n        emit ArtworkSubscribed();\r\n    }\r\n\r\n    // function getArtworkDetails() \r\n    //     public\r\n    //     view\r\n    // {\r\n         \r\n    // }\r\n\r\n    function fund() \r\n        public\r\n        payable\r\n        returns(bool success)\r\n    {\r\n        return true;\r\n    }\r\n\r\n\r\n    function license(uint artworkId) \r\n        public \r\n        payable \r\n        artworkExists(artworkId)\r\n        // inDonationLimit(artworkId,msg.value)\r\n        differentPerson(msg.sender,artworks[artworkId].owner)\r\n    {\r\n        assert(msg.value > 0);\r\n        assert(msg.value <= address(this).balance);\r\n\r\n        Artwork storage artwork = artworks[artworkId];\r\n        artwork.owner.transfer(msg.value);\r\n        artwork.transferSum += msg.value;\r\n        artwork.transferCount++;\r\n        artwork.avgTransfer = artwork.transferSum / artwork.transferCount;\r\n        emit ArtworkLicensed();\r\n    }\r\n\r\n}",
  "sourcePath": "C:/Users/berka/Documents/Code/ArtChain/contracts/ArtworkController.sol",
  "compiler": {
    "name": "solc",
    "version": "0.5.0+commit.1d4f565a.Emscripten.clang"
  },
  "schemaVersion": "3.0.3",
  "updatedAt": "2019-04-20T01:29:35.354Z",
  "devdoc": {
    "methods": {}
  },
  "userdoc": {
    "methods": {}
  }
}