{
  "contractName": "ArtworkController",
  "abi": [
    {
      "constant": true,
      "inputs": [],
      "name": "pinselAdmin",
      "outputs": [
        {
          "name": "",
          "type": "address"
        }
      ],
      "payable": false,
      "stateMutability": "view",
      "type": "function",
      "signature": "0x91fe5694"
    },
    {
      "constant": true,
      "inputs": [
        {
          "name": "",
          "type": "uint256"
        }
      ],
      "name": "artworkHashes",
      "outputs": [
        {
          "name": "",
          "type": "string"
        }
      ],
      "payable": false,
      "stateMutability": "view",
      "type": "function",
      "signature": "0xcab3344a"
    },
    {
      "inputs": [
        {
          "name": "accountControllerContractAddress",
          "type": "address"
        },
        {
          "name": "_pinselAdmin",
          "type": "address"
        }
      ],
      "payable": false,
      "stateMutability": "nonpayable",
      "type": "constructor",
      "signature": "constructor"
    },
    {
      "anonymous": false,
      "inputs": [],
      "name": "ArtworkLicensed",
      "type": "event",
      "signature": "0x1e4ba67414d8c4ef34051027972f0d71d72bcca71db252dac701c3a247dd12d7"
    },
    {
      "anonymous": false,
      "inputs": [],
      "name": "ArtworkSubscribed",
      "type": "event",
      "signature": "0x6a14043a7c64b276dfa5ddf462dfae74b1b78abea94f6c16b69dabdde41bbfaf"
    },
    {
      "constant": false,
      "inputs": [
        {
          "name": "imageHash",
          "type": "string"
        },
        {
          "name": "imageName",
          "type": "bytes32"
        },
        {
          "name": "imageAuthor",
          "type": "bytes16"
        },
        {
          "name": "imageDescription",
          "type": "string"
        },
        {
          "name": "imageUploadDate",
          "type": "uint256"
        },
        {
          "name": "imageTransferLimit",
          "type": "uint256"
        },
        {
          "name": "imageFee",
          "type": "uint256"
        }
      ],
      "name": "addArtwork",
      "outputs": [],
      "payable": false,
      "stateMutability": "nonpayable",
      "type": "function",
      "signature": "0x75360fa5"
    },
    {
      "constant": false,
      "inputs": [
        {
          "name": "imageHash",
          "type": "string"
        }
      ],
      "name": "deleteArtwork",
      "outputs": [],
      "payable": false,
      "stateMutability": "nonpayable",
      "type": "function",
      "signature": "0x03baed71"
    },
    {
      "constant": true,
      "inputs": [],
      "name": "getArtworks",
      "outputs": [
        {
          "name": "",
          "type": "string[]"
        }
      ],
      "payable": false,
      "stateMutability": "view",
      "type": "function",
      "signature": "0x00a71527"
    },
    {
      "constant": true,
      "inputs": [],
      "name": "getArtworksLength",
      "outputs": [
        {
          "name": "",
          "type": "uint256"
        }
      ],
      "payable": false,
      "stateMutability": "view",
      "type": "function",
      "signature": "0x871962dd"
    },
    {
      "constant": true,
      "inputs": [
        {
          "name": "imageHash",
          "type": "string"
        }
      ],
      "name": "getArtworkDetails",
      "outputs": [
        {
          "name": "",
          "type": "bytes32"
        },
        {
          "name": "",
          "type": "bytes16"
        },
        {
          "name": "",
          "type": "string"
        },
        {
          "name": "",
          "type": "uint256"
        },
        {
          "components": [
            {
              "name": "fee",
              "type": "uint256"
            },
            {
              "name": "avgTransfer",
              "type": "uint256"
            },
            {
              "name": "transferLimit",
              "type": "uint256"
            },
            {
              "name": "transferCount",
              "type": "uint256"
            }
          ],
          "name": "",
          "type": "tuple"
        }
      ],
      "payable": false,
      "stateMutability": "view",
      "type": "function",
      "signature": "0x87801de6"
    },
    {
      "constant": false,
      "inputs": [
        {
          "name": "imageHash",
          "type": "string"
        }
      ],
      "name": "license",
      "outputs": [],
      "payable": true,
      "stateMutability": "payable",
      "type": "function",
      "signature": "0xdcb4aef2"
    },
    {
      "constant": false,
      "inputs": [],
      "name": "withdraw",
      "outputs": [],
      "payable": false,
      "stateMutability": "nonpayable",
      "type": "function",
      "signature": "0x3ccfd60b"
    }
  ],
  "bytecode": "0x60806040523480156200001157600080fd5b5060405160408062001f7a8339810180604052620000339190810190620000e8565b816000806101000a81548173ffffffffffffffffffffffffffffffffffffffff021916908373ffffffffffffffffffffffffffffffffffffffff16021790555080600160006101000a81548173ffffffffffffffffffffffffffffffffffffffff021916908373ffffffffffffffffffffffffffffffffffffffff160217905550505062000171565b6000620000ca825162000149565b905092915050565b6000620000e082516200015d565b905092915050565b60008060408385031215620000fc57600080fd5b60006200010c85828601620000bc565b92505060206200011f85828601620000d2565b9150509250929050565b600073ffffffffffffffffffffffffffffffffffffffff82169050919050565b6000620001568262000129565b9050919050565b60006200016a8262000129565b9050919050565b611df980620001816000396000f3fe608060405260043610610098576000357c0100000000000000000000000000000000000000000000000000000000900463ffffffff168062a715271461009d57806303baed71146100c85780633ccfd60b146100f157806375360fa514610108578063871962dd1461013157806387801de61461015c57806391fe56941461019d578063cab3344a146101c8578063dcb4aef214610205575b600080fd5b3480156100a957600080fd5b506100b2610221565b6040516100bf9190611a26565b60405180910390f35b3480156100d457600080fd5b506100ef60048036036100ea9190810190611566565b61030a565b005b3480156100fd57600080fd5b5061010661040f565b005b34801561011457600080fd5b5061012f600480360361012a91908101906115a7565b610525565b005b34801561013d57600080fd5b5061014661088f565b6040516101539190611bd5565b60405180910390f35b34801561016857600080fd5b50610183600480360361017e9190810190611566565b61089c565b604051610194959493929190611a48565b60405180910390f35b3480156101a957600080fd5b506101b2610cd9565b6040516101bf9190611a0b565b60405180910390f35b3480156101d457600080fd5b506101ef60048036036101ea9190810190611675565b610cff565b6040516101fc9190611aa3565b60405180910390f35b61021f600480360361021a9190810190611566565b610dba565b005b60606003805480602002602001604051908101604052809291908181526020016000905b82821015610301578382906000526020600020018054600181600116156101000203166002900480601f0160208091040260200160405190810160405280929190818152602001828054600181600116156101000203166002900480156102ed5780601f106102c2576101008083540402835291602001916102ed565b820191906000526020600020905b8154815290600101906020018083116102d057829003601f168201915b505050505081526020019060010190610245565b50505050905090565b80336002826040518082805190602001908083835b602083101515610344578051825260208201915060208101905060208303925061031f565b6001836020036101000a038019825116818451168082178552505050505050905001915050908152602001604051809103902060000160009054906101000a900473ffffffffffffffffffffffffffffffffffffffff1673ffffffffffffffffffffffffffffffffffffffff168173ffffffffffffffffffffffffffffffffffffffff1614151561040a576040517f08c379a000000000000000000000000000000000000000000000000000000000815260040161040190611b15565b60405180910390fd5b505050565b33600160009054906101000a900473ffffffffffffffffffffffffffffffffffffffff1673ffffffffffffffffffffffffffffffffffffffff168173ffffffffffffffffffffffffffffffffffffffff161415156104a2576040517f08c379a000000000000000000000000000000000000000000000000000000000815260040161049990611af5565b60405180910390fd5b600160009054906101000a900473ffffffffffffffffffffffffffffffffffffffff1673ffffffffffffffffffffffffffffffffffffffff166108fc3073ffffffffffffffffffffffffffffffffffffffff16319081150290604051600060405180830381858888f19350505050158015610521573d6000803e3d6000fd5b5050565b86600073ffffffffffffffffffffffffffffffffffffffff166002826040518082805190602001908083835b6020831015156105765780518252602082019150602081019050602083039250610551565b6001836020036101000a038019825116818451168082178552505050505050905001915050908152602001604051809103902060000160009054906101000a900473ffffffffffffffffffffffffffffffffffffffff1673ffffffffffffffffffffffffffffffffffffffff16141515610625576040517f08c379a000000000000000000000000000000000000000000000000000000000815260040161061c90611bb5565b60405180910390fd5b600083141561063a5760001963ffffffff1692505b610642611386565b608060405190810160405280848152602001600081526020018581526020016000815250905060c0604051908101604052803373ffffffffffffffffffffffffffffffffffffffff168152602001898152602001886fffffffffffffffffffffffffffffffff191681526020018781526020018681526020018281525060028a6040518082805190602001908083835b6020831015156106f757805182526020820191506020810190506020830392506106d2565b6001836020036101000a038019825116818451168082178552505050505050905001915050908152602001604051809103902060008201518160000160006101000a81548173ffffffffffffffffffffffffffffffffffffffff021916908373ffffffffffffffffffffffffffffffffffffffff1602179055506020820151816001015560408201518160020160006101000a8154816fffffffffffffffffffffffffffffffff02191690837001000000000000000000000000000000009004021790555060608201518160030190805190602001906107d89291906113af565b506080820151816004015560a082015181600501600082015181600001556020820151816001015560408201518160020155606082015181600301555050905050600389908060018154018082558091505090600182039060005260206000200160009091929091909150908051906020019061085692919061142f565b50507f6a14043a7c64b276dfa5ddf462dfae74b1b78abea94f6c16b69dabdde41bbfaf60405160405180910390a1505050505050505050565b6000600380549050905090565b600080606060006108ab611386565b85600073ffffffffffffffffffffffffffffffffffffffff166002826040518082805190602001908083835b6020831015156108fc57805182526020820191506020810190506020830392506108d7565b6001836020036101000a038019825116818451168082178552505050505050905001915050908152602001604051809103902060000160009054906101000a900473ffffffffffffffffffffffffffffffffffffffff1673ffffffffffffffffffffffffffffffffffffffff16141515156109ac576040517f08c379a00000000000000000000000000000000000000000000000000000000081526004016109a390611b75565b60405180910390fd5b6002876040518082805190602001908083835b6020831015156109e457805182526020820191506020810190506020830392506109bf565b6001836020036101000a0380198251168184511680821785525050505050509050019150509081526020016040518091039020600101546002886040518082805190602001908083835b602083101515610a535780518252602082019150602081019050602083039250610a2e565b6001836020036101000a038019825116818451168082178552505050505050905001915050908152602001604051809103902060020160009054906101000a9004700100000000000000000000000000000000026002896040518082805190602001908083835b602083101515610adf5780518252602082019150602081019050602083039250610aba565b6001836020036101000a038019825116818451168082178552505050505050905001915050908152602001604051809103902060030160028a6040518082805190602001908083835b602083101515610b4d5780518252602082019150602081019050602083039250610b28565b6001836020036101000a03801982511681845116808217855250505050505090500191505090815260200160405180910390206004015460028b6040518082805190602001908083835b602083101515610bbc5780518252602082019150602081019050602083039250610b97565b6001836020036101000a0380198251168184511680821785525050505050509050019150509081526020016040518091039020600501828054600181600116156101000203166002900480601f016020809104026020016040519081016040528092919081815260200182805460018160011615610100020316600290048015610c875780601f10610c5c57610100808354040283529160200191610c87565b820191906000526020600020905b815481529060010190602001808311610c6a57829003601f168201915b5050505050925080608060405190810160405290816000820154815260200160018201548152602001600282015481526020016003820154815250509050955095509550955095505091939590929450565b600160009054906101000a900473ffffffffffffffffffffffffffffffffffffffff1681565b600381815481101515610d0e57fe5b906000526020600020016000915090508054600181600116156101000203166002900480601f016020809104026020016040519081016040528092919081815260200182805460018160011615610100020316600290048015610db25780601f10610d8757610100808354040283529160200191610db2565b820191906000526020600020905b815481529060010190602001808311610d9557829003601f168201915b505050505081565b33816002816040518082805190602001908083835b602083101515610df45780518252602082019150602081019050602083039250610dcf565b6001836020036101000a038019825116818451168082178552505050505050905001915050908152602001604051809103902060000160009054906101000a900473ffffffffffffffffffffffffffffffffffffffff1673ffffffffffffffffffffffffffffffffffffffff168273ffffffffffffffffffffffffffffffffffffffff1614151515610ebb576040517f08c379a0000000000000000000000000000000000000000000000000000000008152600401610eb290611b55565b60405180910390fd5b82600073ffffffffffffffffffffffffffffffffffffffff166002826040518082805190602001908083835b602083101515610f0c5780518252602082019150602081019050602083039250610ee7565b6001836020036101000a038019825116818451168082178552505050505050905001915050908152602001604051809103902060000160009054906101000a900473ffffffffffffffffffffffffffffffffffffffff1673ffffffffffffffffffffffffffffffffffffffff1614151515610fbc576040517f08c379a0000000000000000000000000000000000000000000000000000000008152600401610fb390611b75565b60405180910390fd5b8360006002826040518082805190602001908083835b602083101515610ff75780518252602082019150602081019050602083039250610fd2565b6001836020036101000a038019825116818451168082178552505050505050905001915050908152602001604051809103902060050160020154111515611073576040517f08c379a000000000000000000000000000000000000000000000000000000000815260040161106a90611b95565b60405180910390fd5b843460006002836040518082805190602001908083835b6020831015156110af578051825260208201915060208101905060208303925061108a565b6001836020036101000a038019825116818451168082178552505050505050905001915050908152602001604051809103902060050160000154905060008114806110f957508181145b151561113a576040517f08c379a000000000000000000000000000000000000000000000000000000000815260040161113190611b35565b60405180910390fd5b60003411151561114657fe5b3073ffffffffffffffffffffffffffffffffffffffff1631341115151561116957fe5b6000809054906101000a900473ffffffffffffffffffffffffffffffffffffffff1673ffffffffffffffffffffffffffffffffffffffff1663c59a6ec589336040518363ffffffff167c01000000000000000000000000000000000000000000000000000000000281526004016111e1929190611ac5565b600060405180830381600087803b1580156111fb57600080fd5b505af115801561120f573d6000803e3d6000fd5b5050505060006002896040518082805190602001908083835b60208310151561124d5780518252602082019150602081019050602083039250611228565b6001836020036101000a038019825116818451168082178552505050505050905001915050908152602001604051809103902090508060000160009054906101000a900473ffffffffffffffffffffffffffffffffffffffff1673ffffffffffffffffffffffffffffffffffffffff166108fc349081150290604051600060405180830381858888f193505050501580156112ec573d6000803e3d6000fd5b5060018160050160030154013482600501600301548360050160010154020181151561131457fe5b04816005016001018190555080600501600301600081548092919060010191905055508060050160020160008154809291906001900391905055507f1e4ba67414d8c4ef34051027972f0d71d72bcca71db252dac701c3a247dd12d760405160405180910390a1505050505050505050565b608060405190810160405280600081526020016000815260200160008152602001600081525090565b828054600181600116156101000203166002900490600052602060002090601f016020900481019282601f106113f057805160ff191683800117855561141e565b8280016001018555821561141e579182015b8281111561141d578251825591602001919060010190611402565b5b50905061142b91906114af565b5090565b828054600181600116156101000203166002900490600052602060002090601f016020900481019282601f1061147057805160ff191683800117855561149e565b8280016001018555821561149e579182015b8281111561149d578251825591602001919060010190611482565b5b5090506114ab91906114af565b5090565b6114d191905b808211156114cd5760008160009055506001016114b5565b5090565b90565b60006114e08235611cf6565b905092915050565b60006114f48235611d22565b905092915050565b600082601f830112151561150f57600080fd5b813561152261151d82611c1d565b611bf0565b9150808252602083016020830185838301111561153e57600080fd5b611549838284611d6c565b50505092915050565b600061155e8235611d2c565b905092915050565b60006020828403121561157857600080fd5b600082013567ffffffffffffffff81111561159257600080fd5b61159e848285016114fc565b91505092915050565b600080600080600080600060e0888a0312156115c257600080fd5b600088013567ffffffffffffffff8111156115dc57600080fd5b6115e88a828b016114fc565b97505060206115f98a828b016114e8565b965050604061160a8a828b016114d4565b955050606088013567ffffffffffffffff81111561162757600080fd5b6116338a828b016114fc565b94505060806116448a828b01611552565b93505060a06116558a828b01611552565b92505060c06116668a828b01611552565b91505092959891949750929550565b60006020828403121561168757600080fd5b600061169584828501611552565b91505092915050565b6116a781611d36565b82525050565b6116b681611c84565b82525050565b60006116c782611c56565b808452602084019350836020820285016116e085611c49565b60005b848110156117195783830388526116fb83835161177e565b925061170682611c77565b91506020880197506001810190506116e3565b508196508694505050505092915050565b61173381611c96565b82525050565b61174281611cc2565b82525050565b600061175382611c6c565b808452611767816020860160208601611d7b565b61177081611dae565b602085010191505092915050565b600061178982611c61565b80845261179d816020860160208601611d7b565b6117a681611dae565b602085010191505092915050565b6000601782527f4f6e6c792061646d696e2063616e2077697468647261770000000000000000006020830152604082019050919050565b6000602782527f4f6e6c7920617274776f726b206f776e65722063616e2064656c65746520746860208301527f6520696d616765000000000000000000000000000000000000000000000000006040830152606082019050919050565b6000602682527f476976656e2076616c756520646f6573206e6f74206d65657420617274776f7260208301527f6b206665652e00000000000000000000000000000000000000000000000000006040830152606082019050919050565b6000602e82527f53656e64657220616e642072656365697665722063616e6e6f7420626520746860208301527f652073616d65206163636f756e740000000000000000000000000000000000006040830152606082019050919050565b6000601782527f417274776f726b20646f6573206e6f742065786973742e0000000000000000006020830152604082019050919050565b6000601882527f417274776f726b204c696d6974206973207265616368656400000000000000006020830152604082019050919050565b6000601782527f417274776f726b20616c7265616479206578697374732e0000000000000000006020830152604082019050919050565b6080820160008201516119bd60008501826119fc565b5060208201516119d060208501826119fc565b5060408201516119e360408501826119fc565b5060608201516119f660608501826119fc565b50505050565b611a0581611cec565b82525050565b6000602082019050611a2060008301846116ad565b92915050565b60006020820190508181036000830152611a4081846116bc565b905092915050565b600061010082019050611a5e6000830188611739565b611a6b602083018761172a565b8181036040830152611a7d8186611748565b9050611a8c60608301856119fc565b611a9960808301846119a7565b9695505050505050565b60006020820190508181036000830152611abd818461177e565b905092915050565b60006040820190508181036000830152611adf8185611748565b9050611aee602083018461169e565b9392505050565b60006020820190508181036000830152611b0e816117b4565b9050919050565b60006020820190508181036000830152611b2e816117eb565b9050919050565b60006020820190508181036000830152611b4e81611848565b9050919050565b60006020820190508181036000830152611b6e816118a5565b9050919050565b60006020820190508181036000830152611b8e81611902565b9050919050565b60006020820190508181036000830152611bae81611939565b9050919050565b60006020820190508181036000830152611bce81611970565b9050919050565b6000602082019050611bea60008301846119fc565b92915050565b6000604051905081810181811067ffffffffffffffff82111715611c1357600080fd5b8060405250919050565b600067ffffffffffffffff821115611c3457600080fd5b601f19601f8301169050602081019050919050565b6000602082019050919050565b600081519050919050565b600081519050919050565b600081519050919050565b6000602082019050919050565b6000611c8f82611ccc565b9050919050565b60007fffffffffffffffffffffffffffffffff0000000000000000000000000000000082169050919050565b6000819050919050565b600073ffffffffffffffffffffffffffffffffffffffff82169050919050565b6000819050919050565b60007fffffffffffffffffffffffffffffffff0000000000000000000000000000000082169050919050565b6000819050919050565b6000819050919050565b6000611d4182611d48565b9050919050565b6000611d5382611d5a565b9050919050565b6000611d6582611ccc565b9050919050565b82818337600083830152505050565b60005b83811015611d99578082015181840152602081019050611d7e565b83811115611da8576000848401525b50505050565b6000601f19601f830116905091905056fea265627a7a723058208bb1d0c32400103064a130983670732dd3d6c6eb32e32c8a9be8682ffc00c61f6c6578706572696d656e74616cf50037",
  "source": "pragma solidity ^0.5;\r\npragma experimental ABIEncoderV2; // Don't use in production\r\n\r\nimport \"./AccountController.sol\";\r\n\r\n// Library for IPFS Hash\r\n// IPFS hashes take 46 bytes of space.\r\nlibrary IpfsHash {\r\n    struct Hash {\r\n        bytes32 fHash;\r\n        bytes12 sHash;\r\n    }\r\n\r\n    function getHash(Hash memory h)\r\n    pure\r\n    public\r\n    returns(bytes32,bytes12)\r\n    {\r\n        return (h.fHash,h.sHash);\r\n    }\r\n}\r\n\r\n\r\ncontract ArtworkController {\r\n    AccountController accountController;\r\n\r\n    address payable public pinselAdmin;\r\n    \r\n    using IpfsHash for IpfsHash.Hash;\r\n\r\n    event ArtworkLicensed();\r\n    event ArtworkSubscribed();\r\n    \r\n    uint constant ones = ~uint32(0);\r\n    uint constant detailClear = ~uint(0) << 128;\r\n\r\n    struct Artwork {\r\n        address payable owner;\r\n        bytes32 imageName;\r\n        bytes16 imageAuthor;\r\n        string imageDescription;\r\n        uint uploadDate;\r\n        ArtworkDetails details;\r\n    }\r\n\r\n    struct ArtworkDetails {\r\n        uint fee;\r\n        uint avgTransfer;\r\n        uint transferLimit;\r\n        uint transferCount;\r\n    }\r\n\r\n    mapping(string => Artwork) private artworks;\r\n    string[] public artworkHashes;\r\n\r\n    constructor(address accountControllerContractAddress,address payable _pinselAdmin) public {\r\n        accountController = AccountController(accountControllerContractAddress);\r\n        pinselAdmin = _pinselAdmin;\r\n    }\r\n\r\n    modifier onlyAdmin(address sender)\r\n    {\r\n        require(sender == pinselAdmin, \"Only admin can withdraw\");\r\n        _;\r\n    }\r\n\r\n    modifier artworkExists(string memory imageHash)\r\n    {\r\n        require(artworks[imageHash].owner != address(0),\"Artwork does not exist.\");\r\n        _;\r\n    }\r\n\r\n    modifier artworkNotExists(string memory imageHash)\r\n    {\r\n        require(artworks[imageHash].owner == address(0),\"Artwork already exists.\");\r\n        _;\r\n    }\r\n\r\n    modifier artworkLimitAvailable(string memory imageHash)\r\n    {\r\n        require(artworks[imageHash].details.transferLimit > 0, \"Artwork Limit is reached\");\r\n        _;\r\n    }\r\n\r\n    modifier inDonationLimit(string memory imageHash,uint amount)\r\n    {\r\n        uint avgTransfer = artworks[imageHash].details.avgTransfer;\r\n        // int min = int(avgTransfer) - 5;\r\n        uint max = avgTransfer + 5;\r\n        // if(min < 1) // uint overflow\r\n        // {\r\n        //     min = 1;\r\n        // }\r\n        if(max < 0) // Prevent Overflow\r\n        {   \r\n            max = 1000;\r\n        }\r\n        require(amount > 0 && amount < max, \"Donation amount should be in the limits of average artwork donation.\");\r\n        _;\r\n    }\r\n\r\n    modifier valueMeetsfee(string memory imageHash,uint amount)\r\n    {\r\n        uint fee = artworks[imageHash].details.fee;\r\n        require(fee == 0 || fee == amount,\"Given value does not meet artwork fee.\");\r\n        _;\r\n    }\r\n\r\n    modifier differentPerson(address sender,string memory imageHash)\r\n    {\r\n        require(sender != artworks[imageHash].owner, \"Sender and receiver cannot be the same account\");\r\n        _;\r\n    }\r\n\r\n    modifier onlyOwner(string memory imageHash, address sender)\r\n    {\r\n        require(sender == artworks[imageHash].owner, \"Only artwork owner can delete the image\");\r\n        _;\r\n    }\r\n\r\n    function addArtwork(string memory imageHash,bytes32 imageName,bytes16 imageAuthor,string memory imageDescription,uint imageUploadDate,uint imageTransferLimit,uint imageFee)\r\n        public\r\n        artworkNotExists(imageHash)\r\n    {\r\n        if(imageTransferLimit == 0)\r\n            imageTransferLimit = ones; // Infinite transfer limit if 0\r\n\r\n        ArtworkDetails memory details = ArtworkDetails(imageFee,0,imageTransferLimit,0);\r\n        artworks[imageHash] = Artwork(msg.sender,imageName,imageAuthor,imageDescription,imageUploadDate,details);\r\n        artworkHashes.push(imageHash);\r\n        emit ArtworkSubscribed();\r\n    }\r\n\r\n    function deleteArtwork(string memory imageHash)\r\n        public\r\n        onlyOwner(imageHash,msg.sender)\r\n    {\r\n    }\r\n\r\n    function getArtworks() \r\n        view \r\n        public \r\n        returns(string[] memory) \r\n    {\r\n        return artworkHashes;\r\n    }\r\n\r\n    function getArtworksLength() \r\n        view \r\n        public \r\n        returns (uint) \r\n    {\r\n        return artworkHashes.length;\r\n    }\r\n\r\n    function getArtworkDetails(string memory imageHash)\r\n        public\r\n        view\r\n        artworkExists(imageHash)\r\n        returns(bytes32,bytes16,string memory,uint,ArtworkDetails memory)\r\n    {\r\n        return (artworks[imageHash].imageName,\r\n                artworks[imageHash].imageAuthor,\r\n                artworks[imageHash].imageDescription,\r\n                artworks[imageHash].uploadDate,\r\n                artworks[imageHash].details);\r\n    }  \r\n\r\n    function license(string memory imageHash) \r\n        public \r\n        payable \r\n        differentPerson(msg.sender,imageHash)\r\n        artworkExists(imageHash)\r\n        artworkLimitAvailable(imageHash)\r\n        valueMeetsfee(imageHash,msg.value)\r\n        // inDonationLimit(artworkId,msg.value)\r\n    {\r\n        assert(msg.value > 0);\r\n        assert(msg.value <= address(this).balance);\r\n\r\n        accountController.ownArtwork(imageHash,msg.sender);\r\n\r\n        Artwork storage artwork = artworks[imageHash];\r\n        artwork.owner.transfer(msg.value);\r\n\r\n        artwork.details.avgTransfer = ((artwork.details.avgTransfer * artwork.details.transferCount) + msg.value) / (artwork.details.transferCount + 1);\r\n        artwork.details.transferCount++;\r\n        artwork.details.transferLimit--;\r\n\r\n        emit ArtworkLicensed();\r\n    }\r\n\r\n    function withdraw()\r\n        public\r\n        onlyAdmin(msg.sender)\r\n    {\r\n        pinselAdmin.transfer(address(this).balance);\r\n    }\r\n}",
  "sourcePath": "C:/Users/berka/Documents/Code/ArtChain/contracts/ArtworkController.sol",
  "compiler": {
    "name": "solc",
    "version": "0.5.0+commit.1d4f565a.Emscripten.clang"
  },
  "schemaVersion": "3.0.3",
  "updatedAt": "2019-05-07T22:04:34.756Z",
  "devdoc": {
    "methods": {}
  },
  "userdoc": {
    "methods": {}
  }
}