{
  "contractName": "ArtworkController",
  "abi": [
    {
      "constant": true,
      "inputs": [
        {
          "name": "",
          "type": "uint256"
        }
      ],
      "name": "artworkHashes",
      "outputs": [
        {
          "name": "",
          "type": "string"
        }
      ],
      "payable": false,
      "stateMutability": "view",
      "type": "function",
      "signature": "0xcab3344a"
    },
    {
      "inputs": [],
      "payable": false,
      "stateMutability": "nonpayable",
      "type": "constructor",
      "signature": "constructor"
    },
    {
      "anonymous": false,
      "inputs": [],
      "name": "ArtworkLicensed",
      "type": "event",
      "signature": "0x1e4ba67414d8c4ef34051027972f0d71d72bcca71db252dac701c3a247dd12d7"
    },
    {
      "anonymous": false,
      "inputs": [],
      "name": "ArtworkSubscribed",
      "type": "event",
      "signature": "0x6a14043a7c64b276dfa5ddf462dfae74b1b78abea94f6c16b69dabdde41bbfaf"
    },
    {
      "constant": false,
      "inputs": [
        {
          "name": "artworkHash",
          "type": "string"
        },
        {
          "name": "imageName",
          "type": "bytes32"
        },
        {
          "name": "imageAuthor",
          "type": "bytes16"
        },
        {
          "name": "imageDescription",
          "type": "string"
        }
      ],
      "name": "addArtwork",
      "outputs": [],
      "payable": false,
      "stateMutability": "nonpayable",
      "type": "function",
      "signature": "0x2dc7ce36"
    },
    {
      "constant": false,
      "inputs": [
        {
          "name": "artworkHash",
          "type": "string"
        }
      ],
      "name": "deleteArtwork",
      "outputs": [],
      "payable": false,
      "stateMutability": "nonpayable",
      "type": "function",
      "signature": "0x03baed71"
    },
    {
      "constant": true,
      "inputs": [],
      "name": "getArtworks",
      "outputs": [
        {
          "name": "",
          "type": "string[]"
        }
      ],
      "payable": false,
      "stateMutability": "view",
      "type": "function",
      "signature": "0x00a71527"
    },
    {
      "constant": true,
      "inputs": [],
      "name": "getArtworksLength",
      "outputs": [
        {
          "name": "",
          "type": "uint256"
        }
      ],
      "payable": false,
      "stateMutability": "view",
      "type": "function",
      "signature": "0x871962dd"
    },
    {
      "constant": true,
      "inputs": [
        {
          "name": "artworkHash",
          "type": "string"
        }
      ],
      "name": "getArtworkDetails",
      "outputs": [
        {
          "name": "",
          "type": "bytes32"
        },
        {
          "name": "",
          "type": "bytes16"
        },
        {
          "name": "",
          "type": "string"
        },
        {
          "name": "",
          "type": "bool"
        },
        {
          "name": "",
          "type": "uint256"
        },
        {
          "name": "",
          "type": "uint256"
        }
      ],
      "payable": false,
      "stateMutability": "view",
      "type": "function",
      "signature": "0x87801de6"
    },
    {
      "constant": false,
      "inputs": [
        {
          "name": "artworkHash",
          "type": "string"
        }
      ],
      "name": "license",
      "outputs": [],
      "payable": true,
      "stateMutability": "payable",
      "type": "function",
      "signature": "0xdcb4aef2"
    }
  ],
  "bytecode": "0x608060405234801561001057600080fd5b5061179c806100206000396000f3fe608060405260043610610082576000357c0100000000000000000000000000000000000000000000000000000000900463ffffffff168062a715271461008757806303baed71146100b25780632dc7ce36146100db578063871962dd1461010457806387801de61461012f578063cab3344a14610171578063dcb4aef2146101ae575b600080fd5b34801561009357600080fd5b5061009c6101ca565b6040516100a991906114a8565b60405180910390f35b3480156100be57600080fd5b506100d960048036036100d4919081019061116d565b6102b3565b005b3480156100e757600080fd5b5061010260048036036100fd91908101906111ae565b6103b8565b005b34801561011057600080fd5b506101196106ef565b60405161012691906115d4565b60405180910390f35b34801561013b57600080fd5b506101566004803603610151919081019061116d565b6106fc565b604051610168969594939291906114ca565b60405180910390f35b34801561017d57600080fd5b5061019860048036036101939190810190611241565b610b7c565b6040516101a59190611532565b60405180910390f35b6101c860048036036101c3919081019061116d565b610c37565b005b60606001805480602002602001604051908101604052809291908181526020016000905b828210156102aa578382906000526020600020018054600181600116156101000203166002900480601f0160208091040260200160405190810160405280929190818152602001828054600181600116156101000203166002900480156102965780601f1061026b57610100808354040283529160200191610296565b820191906000526020600020905b81548152906001019060200180831161027957829003601f168201915b5050505050815260200190600101906101ee565b50505050905090565b80336000826040518082805190602001908083835b6020831015156102ed57805182526020820191506020810190506020830392506102c8565b6001836020036101000a038019825116818451168082178552505050505050905001915050908152602001604051809103902060000160009054906101000a900473ffffffffffffffffffffffffffffffffffffffff1673ffffffffffffffffffffffffffffffffffffffff168173ffffffffffffffffffffffffffffffffffffffff161415156103b3576040517f08c379a00000000000000000000000000000000000000000000000000000000081526004016103aa90611554565b60405180910390fd5b505050565b83600073ffffffffffffffffffffffffffffffffffffffff166000826040518082805190602001908083835b60208310151561040957805182526020820191506020810190506020830392506103e4565b6001836020036101000a038019825116818451168082178552505050505050905001915050908152602001604051809103902060000160009054906101000a900473ffffffffffffffffffffffffffffffffffffffff1673ffffffffffffffffffffffffffffffffffffffff161415156104b8576040517f08c379a00000000000000000000000000000000000000000000000000000000081526004016104af906115b4565b60405180910390fd5b610100604051908101604052803373ffffffffffffffffffffffffffffffffffffffff168152602001858152602001846fffffffffffffffffffffffffffffffff19168152602001838152602001600015158152602001600081526020016000815260200160008152506000866040518082805190602001908083835b60208310151561055a5780518252602082019150602081019050602083039250610535565b6001836020036101000a038019825116818451168082178552505050505050905001915050908152602001604051809103902060008201518160000160006101000a81548173ffffffffffffffffffffffffffffffffffffffff021916908373ffffffffffffffffffffffffffffffffffffffff1602179055506020820151816001015560408201518160020160006101000a8154816fffffffffffffffffffffffffffffffff021916908370010000000000000000000000000000000090040217905550606082015181600301908051906020019061063b929190610fb6565b5060808201518160040160006101000a81548160ff02191690831515021790555060a0820151816005015560c0820151816006015560e0820151816007015590505060018590806001815401808255809150509060018203906000526020600020016000909192909190915090805190602001906106ba929190611036565b50507f6a14043a7c64b276dfa5ddf462dfae74b1b78abea94f6c16b69dabdde41bbfaf60405160405180910390a15050505050565b6000600180549050905090565b6000806060600080600086600073ffffffffffffffffffffffffffffffffffffffff166000826040518082805190602001908083835b6020831015156107575780518252602082019150602081019050602083039250610732565b6001836020036101000a038019825116818451168082178552505050505050905001915050908152602001604051809103902060000160009054906101000a900473ffffffffffffffffffffffffffffffffffffffff1673ffffffffffffffffffffffffffffffffffffffff1614151515610807576040517f08c379a00000000000000000000000000000000000000000000000000000000081526004016107fe90611594565b60405180910390fd5b6000886040518082805190602001908083835b60208310151561083f578051825260208201915060208101905060208303925061081a565b6001836020036101000a0380198251168184511680821785525050505050509050019150509081526020016040518091039020600101546000896040518082805190602001908083835b6020831015156108ae5780518252602082019150602081019050602083039250610889565b6001836020036101000a038019825116818451168082178552505050505050905001915050908152602001604051809103902060020160009054906101000a90047001000000000000000000000000000000000260008a6040518082805190602001908083835b60208310151561093a5780518252602082019150602081019050602083039250610915565b6001836020036101000a038019825116818451168082178552505050505050905001915050908152602001604051809103902060030160008b6040518082805190602001908083835b6020831015156109a85780518252602082019150602081019050602083039250610983565b6001836020036101000a038019825116818451168082178552505050505050905001915050908152602001604051809103902060040160009054906101000a900460ff1660008c6040518082805190602001908083835b602083101515610a2457805182526020820191506020810190506020830392506109ff565b6001836020036101000a03801982511681845116808217855250505050505090500191505090815260200160405180910390206005015460008d6040518082805190602001908083835b602083101515610a935780518252602082019150602081019050602083039250610a6e565b6001836020036101000a038019825116818451168082178552505050505050905001915050908152602001604051809103902060070154838054600181600116156101000203166002900480601f016020809104026020016040519081016040528092919081815260200182805460018160011615610100020316600290048015610b5f5780601f10610b3457610100808354040283529160200191610b5f565b820191906000526020600020905b815481529060010190602001808311610b4257829003601f168201915b505050505093509650965096509650965096505091939550919395565b600181815481101515610b8b57fe5b906000526020600020016000915090508054600181600116156101000203166002900480601f016020809104026020016040519081016040528092919081815260200182805460018160011615610100020316600290048015610c2f5780601f10610c0457610100808354040283529160200191610c2f565b820191906000526020600020905b815481529060010190602001808311610c1257829003601f168201915b505050505081565b80600073ffffffffffffffffffffffffffffffffffffffff166000826040518082805190602001908083835b602083101515610c885780518252602082019150602081019050602083039250610c63565b6001836020036101000a038019825116818451168082178552505050505050905001915050908152602001604051809103902060000160009054906101000a900473ffffffffffffffffffffffffffffffffffffffff1673ffffffffffffffffffffffffffffffffffffffff1614151515610d38576040517f08c379a0000000000000000000000000000000000000000000000000000000008152600401610d2f90611594565b60405180910390fd5b336000836040518082805190602001908083835b602083101515610d715780518252602082019150602081019050602083039250610d4c565b6001836020036101000a038019825116818451168082178552505050505050905001915050908152602001604051809103902060000160009054906101000a900473ffffffffffffffffffffffffffffffffffffffff168073ffffffffffffffffffffffffffffffffffffffff168273ffffffffffffffffffffffffffffffffffffffff1614151515610e39576040517f08c379a0000000000000000000000000000000000000000000000000000000008152600401610e3090611574565b60405180910390fd5b600034111515610e4557fe5b3073ffffffffffffffffffffffffffffffffffffffff16313411151515610e6857fe5b600080856040518082805190602001908083835b602083101515610ea15780518252602082019150602081019050602083039250610e7c565b6001836020036101000a038019825116818451168082178552505050505050905001915050908152602001604051809103902090508060000160009054906101000a900473ffffffffffffffffffffffffffffffffffffffff1673ffffffffffffffffffffffffffffffffffffffff166108fc349081150290604051600060405180830381858888f19350505050158015610f40573d6000803e3d6000fd5b50348160060160008282540192505081905550806007016000815480929190600101919050555080600701548160060154811515610f7a57fe5b0481600501819055507f1e4ba67414d8c4ef34051027972f0d71d72bcca71db252dac701c3a247dd12d760405160405180910390a15050505050565b828054600181600116156101000203166002900490600052602060002090601f016020900481019282601f10610ff757805160ff1916838001178555611025565b82800160010185558215611025579182015b82811115611024578251825591602001919060010190611009565b5b50905061103291906110b6565b5090565b828054600181600116156101000203166002900490600052602060002090601f016020900481019282601f1061107757805160ff19168380011785556110a5565b828001600101855582156110a5579182015b828111156110a4578251825591602001919060010190611089565b5b5090506110b291906110b6565b5090565b6110d891905b808211156110d45760008160009055506001016110bc565b5090565b90565b60006110e782356116cf565b905092915050565b60006110fb82356116fb565b905092915050565b600082601f830112151561111657600080fd5b81356111296111248261161c565b6115ef565b9150808252602083016020830185838301111561114557600080fd5b61115083828461170f565b50505092915050565b60006111658235611705565b905092915050565b60006020828403121561117f57600080fd5b600082013567ffffffffffffffff81111561119957600080fd5b6111a584828501611103565b91505092915050565b600080600080608085870312156111c457600080fd5b600085013567ffffffffffffffff8111156111de57600080fd5b6111ea87828801611103565b94505060206111fb878288016110ef565b935050604061120c878288016110db565b925050606085013567ffffffffffffffff81111561122957600080fd5b61123587828801611103565b91505092959194509250565b60006020828403121561125357600080fd5b600061126184828501611159565b91505092915050565b600061127582611655565b8084526020840193508360208202850161128e85611648565b60005b848110156112c75783830388526112a983835161133b565b92506112b482611676565b9150602088019750600181019050611291565b508196508694505050505092915050565b6112e181611683565b82525050565b6112f08161168f565b82525050565b6112ff816116bb565b82525050565b60006113108261166b565b80845261132481602086016020860161171e565b61132d81611751565b602085010191505092915050565b600061134682611660565b80845261135a81602086016020860161171e565b61136381611751565b602085010191505092915050565b6000602782527f4f6e6c7920617274776f726b206f776e65722063616e2064656c65746520746860208301527f6520696d616765000000000000000000000000000000000000000000000000006040830152606082019050919050565b6000602e82527f53656e64657220616e642072656365697665722063616e6e6f7420626520746860208301527f652073616d65206163636f756e740000000000000000000000000000000000006040830152606082019050919050565b6000601782527f417274776f726b20646f6573206e6f742065786973742e0000000000000000006020830152604082019050919050565b6000601782527f417274776f726b20616c7265616479206578697374732e0000000000000000006020830152604082019050919050565b6114a2816116c5565b82525050565b600060208201905081810360008301526114c2818461126a565b905092915050565b600060c0820190506114df60008301896112f6565b6114ec60208301886112e7565b81810360408301526114fe8187611305565b905061150d60608301866112d8565b61151a6080830185611499565b61152760a0830184611499565b979650505050505050565b6000602082019050818103600083015261154c818461133b565b905092915050565b6000602082019050818103600083015261156d81611371565b9050919050565b6000602082019050818103600083015261158d816113ce565b9050919050565b600060208201905081810360008301526115ad8161142b565b9050919050565b600060208201905081810360008301526115cd81611462565b9050919050565b60006020820190506115e96000830184611499565b92915050565b6000604051905081810181811067ffffffffffffffff8211171561161257600080fd5b8060405250919050565b600067ffffffffffffffff82111561163357600080fd5b601f19601f8301169050602081019050919050565b6000602082019050919050565b600081519050919050565b600081519050919050565b600081519050919050565b6000602082019050919050565b60008115159050919050565b60007fffffffffffffffffffffffffffffffff0000000000000000000000000000000082169050919050565b6000819050919050565b6000819050919050565b60007fffffffffffffffffffffffffffffffff0000000000000000000000000000000082169050919050565b6000819050919050565b6000819050919050565b82818337600083830152505050565b60005b8381101561173c578082015181840152602081019050611721565b8381111561174b576000848401525b50505050565b6000601f19601f830116905091905056fea265627a7a723058204ee90a2a122260566b67d0697b8005ae13eb5cbbf3a83b2711c204dced05ac316c6578706572696d656e74616cf50037",
  "source": "pragma solidity ^0.5;\r\npragma experimental ABIEncoderV2;\r\n\r\ncontract ArtworkController {\r\n\r\n    event ArtworkLicensed();\r\n    event ArtworkSubscribed();\r\n    \r\n    struct Artwork {\r\n        address payable owner;\r\n        bytes32 imageName;\r\n        bytes16 imageAuthor;\r\n        string imageDescription;\r\n        bool flexPayment;\r\n        uint avgTransfer;\r\n        uint transferSum;\r\n        uint transferCount;\r\n    }\r\n\r\n    mapping(string => Artwork) private artworks;\r\n    string[] public artworkHashes;\r\n\r\n    constructor() public {\r\n    }\r\n\r\n    modifier artworkExists(string memory artworkHash)\r\n    {\r\n        require(artworks[artworkHash].owner != address(0),\"Artwork does not exist.\");\r\n        _;\r\n    }\r\n\r\n    modifier artworkNotExists(string memory artworkHash)\r\n    {\r\n        require(artworks[artworkHash].owner == address(0),\"Artwork already exists.\");\r\n        _;\r\n    }\r\n\r\n    modifier inDonationLimit(string memory artworkHash,uint amount)\r\n    {\r\n        uint avgTransfer = artworks[artworkHash].avgTransfer;\r\n        // int min = int(avgTransfer) - 5;\r\n        uint max = avgTransfer + 5;\r\n        // if(min < 1) // uint overflow\r\n        // {\r\n        //     min = 1;\r\n        // }\r\n        if(max < 0) // Prevent Overflow\r\n        {   \r\n            max = 1000;\r\n        }\r\n        require(amount > 0 && amount < max, \"Donation amount should be in the limits of average artwork donation.\");\r\n        _;\r\n    }\r\n\r\n    modifier differentPerson(address sender,address receiver)\r\n    {\r\n        require(sender != receiver, \"Sender and receiver cannot be the same account\");\r\n        _;\r\n    }\r\n\r\n    modifier onlyOwner(string memory artworkHash, address sender)\r\n    {\r\n        require(sender == artworks[artworkHash].owner, \"Only artwork owner can delete the image\");\r\n        _;\r\n    }\r\n\r\n    function addArtwork(string memory artworkHash,bytes32 imageName,bytes16 imageAuthor,string memory imageDescription)\r\n        public\r\n        artworkNotExists(artworkHash)\r\n    {\r\n        artworks[artworkHash] = Artwork(msg.sender,imageName,imageAuthor,imageDescription,false,0,0,0);\r\n        artworkHashes.push(artworkHash);\r\n        emit ArtworkSubscribed();\r\n    }\r\n\r\n    function deleteArtwork(string memory artworkHash)\r\n        public\r\n        onlyOwner(artworkHash,msg.sender)\r\n    {\r\n    }\r\n\r\n    function getArtworks() view public returns(string[] memory) {\r\n        return artworkHashes;\r\n    }\r\n\r\n    function getArtworksLength() view public returns (uint) {\r\n        return artworkHashes.length;\r\n    }\r\n\r\n    function getArtworkDetails(string memory artworkHash)\r\n        public\r\n        view\r\n        artworkExists(artworkHash)\r\n        returns(bytes32,bytes16,string memory,bool,uint,uint)\r\n    {\r\n        return (artworks[artworkHash].imageName,artworks[artworkHash].imageAuthor,artworks[artworkHash].imageDescription,artworks[artworkHash].flexPayment,artworks[artworkHash].avgTransfer,artworks[artworkHash].transferCount);\r\n    }  \r\n\r\n    function license(string memory artworkHash) \r\n        public \r\n        payable \r\n        artworkExists(artworkHash)\r\n        // inDonationLimit(artworkId,msg.value)\r\n        differentPerson(msg.sender,artworks[artworkHash].owner)\r\n    {\r\n        assert(msg.value > 0);\r\n        assert(msg.value <= address(this).balance);\r\n\r\n        Artwork storage artwork = artworks[artworkHash];\r\n        artwork.owner.transfer(msg.value);\r\n        artwork.transferSum += msg.value;\r\n        artwork.transferCount++;\r\n        artwork.avgTransfer = artwork.transferSum / artwork.transferCount;\r\n        emit ArtworkLicensed();\r\n    }\r\n\r\n}",
  "sourcePath": "C:/Users/berka/Documents/Code/ArtChain/contracts/ArtworkController.sol",
  "compiler": {
    "name": "solc",
    "version": "0.5.0+commit.1d4f565a.Emscripten.clang"
  },
  "schemaVersion": "3.0.3",
  "updatedAt": "2019-04-22T18:21:17.602Z",
  "devdoc": {
    "methods": {}
  },
  "userdoc": {
    "methods": {}
  }
}