{
  "contractName": "HashLib",
  "abi": [
    {
      "constant": true,
      "inputs": [
        {
          "components": [
            {
              "name": "fHash",
              "type": "bytes32"
            },
            {
              "name": "sHash",
              "type": "bytes12"
            }
          ],
          "name": "h",
          "type": "tuple"
        }
      ],
      "name": "getHash",
      "outputs": [
        {
          "name": "",
          "type": "bytes32"
        },
        {
          "name": "",
          "type": "bytes12"
        }
      ],
      "payable": false,
      "stateMutability": "pure",
      "type": "function"
    }
  ],
  "bytecode": "0x61025b610030600b82828239805160001a6073146000811461002057610022565bfe5b5030600052607381538281f3fe7300000000000000000000000000000000000000003014608060405260043610610058576000357c0100000000000000000000000000000000000000000000000000000000900463ffffffff168063d388bfd11461005d575b600080fd5b61007760048036036100729190810190610118565b61008e565b60405161008592919061015f565b60405180910390f35b6000808260000151836020015191509150915091565b60006100b082356101eb565b905092915050565b60006100c48235610217565b905092915050565b6000604082840312156100de57600080fd5b6100e86040610188565b905060006100f8848285016100b8565b600083015250602061010c848285016100a4565b60208301525092915050565b60006040828403121561012a57600080fd5b6000610138848285016100cc565b91505092915050565b61014a816101b5565b82525050565b610159816101e1565b82525050565b60006040820190506101746000830185610150565b6101816020830184610141565b9392505050565b6000604051905081810181811067ffffffffffffffff821117156101ab57600080fd5b8060405250919050565b60007fffffffffffffffffffffffff000000000000000000000000000000000000000082169050919050565b6000819050919050565b60007fffffffffffffffffffffffff000000000000000000000000000000000000000082169050919050565b600081905091905056fea265627a7a7230582069bf467595f93edac69589df2d1abe778cafb7b72eb1630a47f7909d7ce7397e6c6578706572696d656e74616cf50037",
  "source": "pragma solidity ^0.5;\r\npragma experimental ABIEncoderV2; // Don't use in production\r\n\r\n// Library for IPFS Hash\r\n// IPFS hashes take 46 bytes of space.\r\nlibrary HashLib {\r\n    struct Hash {\r\n        bytes32 fHash;\r\n        bytes12 sHash;\r\n    }\r\n\r\n    function getHash(Hash memory h)\r\n    pure\r\n    public\r\n    returns(bytes32,bytes12)\r\n    {\r\n        return (h.fHash,h.sHash);\r\n    }\r\n}\r\n\r\n\r\ncontract ArtworkController {\r\n    using HashLib for HashLib.Hash;\r\n\r\n    event ArtworkLicensed();\r\n    event ArtworkSubscribed();\r\n    \r\n    struct Artwork {\r\n        address payable owner;\r\n        bytes32 imageName;\r\n        bytes16 imageAuthor;\r\n        string imageDescription;\r\n        bool flexPayment;\r\n        uint avgTransfer;\r\n        uint transferSum;\r\n        uint transferCount;\r\n    }\r\n\r\n    mapping(string => Artwork) private artworks;\r\n    string[] public artworkHashes;\r\n\r\n    constructor() public {\r\n    }\r\n\r\n    modifier artworkExists(string memory artworkHash)\r\n    {\r\n        require(artworks[artworkHash].owner != address(0),\"Artwork does not exist.\");\r\n        _;\r\n    }\r\n\r\n    modifier artworkNotExists(string memory artworkHash)\r\n    {\r\n        require(artworks[artworkHash].owner == address(0),\"Artwork already exists.\");\r\n        _;\r\n    }\r\n\r\n    modifier inDonationLimit(string memory artworkHash,uint amount)\r\n    {\r\n        uint avgTransfer = artworks[artworkHash].avgTransfer;\r\n        // int min = int(avgTransfer) - 5;\r\n        uint max = avgTransfer + 5;\r\n        // if(min < 1) // uint overflow\r\n        // {\r\n        //     min = 1;\r\n        // }\r\n        if(max < 0) // Prevent Overflow\r\n        {   \r\n            max = 1000;\r\n        }\r\n        require(amount > 0 && amount < max, \"Donation amount should be in the limits of average artwork donation.\");\r\n        _;\r\n    }\r\n\r\n    modifier differentPerson(address sender,address receiver)\r\n    {\r\n        require(sender != receiver, \"Sender and receiver cannot be the same account\");\r\n        _;\r\n    }\r\n\r\n    modifier onlyOwner(string memory artworkHash, address sender)\r\n    {\r\n        require(sender == artworks[artworkHash].owner, \"Only artwork owner can delete the image\");\r\n        _;\r\n    }\r\n\r\n    function addArtwork(string memory artworkHash,bytes32 imageName,bytes16 imageAuthor,string memory imageDescription)\r\n        public\r\n        artworkNotExists(artworkHash)\r\n    {\r\n        artworks[artworkHash] = Artwork(msg.sender,imageName,imageAuthor,imageDescription,false,0,0,0);\r\n        artworkHashes.push(artworkHash);\r\n        emit ArtworkSubscribed();\r\n    }\r\n\r\n    function deleteArtwork(string memory artworkHash)\r\n        public\r\n        onlyOwner(artworkHash,msg.sender)\r\n    {\r\n    }\r\n\r\n    function getArtworks() \r\n        view \r\n        public \r\n        returns(string[] memory) \r\n    {\r\n        return artworkHashes;\r\n    }\r\n\r\n    function getArtworksLength() \r\n        view \r\n        public \r\n        returns (uint) \r\n    {\r\n        return artworkHashes.length;\r\n    }\r\n\r\n    function getArtworkDetails(string memory artworkHash)\r\n        public\r\n        view\r\n        artworkExists(artworkHash)\r\n        returns(bytes32,bytes16,string memory,bool,uint,uint)\r\n    {\r\n        return (artworks[artworkHash].imageName,artworks[artworkHash].imageAuthor,artworks[artworkHash].imageDescription,artworks[artworkHash].flexPayment,artworks[artworkHash].avgTransfer,artworks[artworkHash].transferCount);\r\n    }  \r\n\r\n    function license(string memory artworkHash) \r\n        public \r\n        payable \r\n        artworkExists(artworkHash)\r\n        // inDonationLimit(artworkId,msg.value)\r\n        differentPerson(msg.sender,artworks[artworkHash].owner)\r\n    {\r\n        assert(msg.value > 0);\r\n        assert(msg.value <= address(this).balance);\r\n\r\n        Artwork storage artwork = artworks[artworkHash];\r\n        artwork.owner.transfer(msg.value);\r\n        artwork.transferSum += msg.value;\r\n        artwork.transferCount++;\r\n        artwork.avgTransfer = artwork.transferSum / artwork.transferCount;\r\n        emit ArtworkLicensed();\r\n    }\r\n\r\n}",
  "sourcePath": "C:/Users/berka/Documents/Code/ArtChain/contracts/ArtworkController.sol",
  "compiler": {
    "name": "solc",
    "version": "0.5.0+commit.1d4f565a.Emscripten.clang"
  },
  "schemaVersion": "3.0.3",
  "updatedAt": "2019-04-25T15:44:14.901Z",
  "devdoc": {
    "methods": {}
  },
  "userdoc": {
    "methods": {}
  }
}