{
  "contractName": "IpfsHash",
  "abi": [
    {
      "constant": true,
      "inputs": [
        {
          "components": [
            {
              "name": "fHash",
              "type": "bytes32"
            },
            {
              "name": "sHash",
              "type": "bytes12"
            }
          ],
          "name": "h",
          "type": "tuple"
        }
      ],
      "name": "getHash",
      "outputs": [
        {
          "name": "",
          "type": "bytes32"
        },
        {
          "name": "",
          "type": "bytes12"
        }
      ],
      "payable": false,
      "stateMutability": "pure",
      "type": "function"
    }
  ],
  "bytecode": "0x61025b610030600b82828239805160001a6073146000811461002057610022565bfe5b5030600052607381538281f3fe7300000000000000000000000000000000000000003014608060405260043610610058576000357c0100000000000000000000000000000000000000000000000000000000900463ffffffff168063fb6e50511461005d575b600080fd5b61007760048036036100729190810190610118565b61008e565b60405161008592919061015f565b60405180910390f35b6000808260000151836020015191509150915091565b60006100b082356101eb565b905092915050565b60006100c48235610217565b905092915050565b6000604082840312156100de57600080fd5b6100e86040610188565b905060006100f8848285016100b8565b600083015250602061010c848285016100a4565b60208301525092915050565b60006040828403121561012a57600080fd5b6000610138848285016100cc565b91505092915050565b61014a816101b5565b82525050565b610159816101e1565b82525050565b60006040820190506101746000830185610150565b6101816020830184610141565b9392505050565b6000604051905081810181811067ffffffffffffffff821117156101ab57600080fd5b8060405250919050565b60007fffffffffffffffffffffffff000000000000000000000000000000000000000082169050919050565b6000819050919050565b60007fffffffffffffffffffffffff000000000000000000000000000000000000000082169050919050565b600081905091905056fea265627a7a72305820689ed66b4844e2063bca48b6c9a15dd941e6f3069a568d01dd7240024ff07a396c6578706572696d656e74616cf50037",
  "source": "pragma solidity ^0.5;\r\npragma experimental ABIEncoderV2; // Don't use in production\r\n\r\nimport \"./AccountController.sol\";\r\n\r\n// Library for IPFS Hash\r\n// IPFS hashes take 46 bytes of space.\r\nlibrary IpfsHash {\r\n    struct Hash {\r\n        bytes32 fHash;\r\n        bytes12 sHash;\r\n    }\r\n\r\n    function getHash(Hash memory h)\r\n    pure\r\n    public\r\n    returns(bytes32,bytes12)\r\n    {\r\n        return (h.fHash,h.sHash);\r\n    }\r\n}\r\n\r\n\r\ncontract ArtworkController {\r\n    AccountController accountController;\r\n\r\n    address payable public pinselAdmin;\r\n    \r\n    using IpfsHash for IpfsHash.Hash;\r\n\r\n    event ArtworkLicensed();\r\n    event ArtworkSubscribed();\r\n    \r\n    uint constant ones = ~uint32(0);\r\n    uint constant detailClear = ~uint(0) << 128;\r\n\r\n    struct Artwork {\r\n        address payable owner;\r\n        bytes32 imageName;\r\n        bytes16 imageAuthor;\r\n        string imageDescription;\r\n        uint uploadDate;\r\n        ArtworkDetails details;\r\n    }\r\n\r\n    struct ArtworkDetails {\r\n        uint fee;\r\n        uint avgTransfer;\r\n        uint transferLimit;\r\n        uint transferCount;\r\n    }\r\n\r\n    mapping(string => Artwork) private artworks;\r\n    string[] public artworkHashes;\r\n\r\n    constructor(address accountControllerContractAddress,address payable _pinselAdmin) public {\r\n        accountController = AccountController(accountControllerContractAddress);\r\n        pinselAdmin = _pinselAdmin;\r\n    }\r\n\r\n    modifier onlyAdmin(address sender)\r\n    {\r\n        require(sender == pinselAdmin, \"Only admin can withdraw\");\r\n        _;\r\n    }\r\n\r\n    modifier artworkExists(string memory imageHash)\r\n    {\r\n        require(artworks[imageHash].owner != address(0),\"Artwork does not exist.\");\r\n        _;\r\n    }\r\n\r\n    modifier artworkNotExists(string memory imageHash)\r\n    {\r\n        require(artworks[imageHash].owner == address(0),\"Artwork already exists.\");\r\n        _;\r\n    }\r\n\r\n    modifier artworkLimitAvailable(string memory imageHash)\r\n    {\r\n        require(artworks[imageHash].details.transferLimit > 0, \"Artwork Limit is reached\");\r\n        _;\r\n    }\r\n\r\n    modifier inDonationLimit(string memory imageHash,uint amount)\r\n    {\r\n        uint avgTransfer = artworks[imageHash].details.avgTransfer;\r\n        // int min = int(avgTransfer) - 5;\r\n        uint max = avgTransfer + 5;\r\n        // if(min < 1) // uint overflow\r\n        // {\r\n        //     min = 1;\r\n        // }\r\n        if(max < 0) // Prevent Overflow\r\n        {   \r\n            max = 1000;\r\n        }\r\n        require(amount > 0 && amount < max, \"Donation amount should be in the limits of average artwork donation.\");\r\n        _;\r\n    }\r\n\r\n    modifier valueMeetsfee(string memory imageHash,uint amount)\r\n    {\r\n        uint fee = artworks[imageHash].details.fee;\r\n        require(fee == 0 || fee == amount,\"Given value does not meet artwork fee.\");\r\n        _;\r\n    }\r\n\r\n    modifier differentPerson(address sender,string memory imageHash)\r\n    {\r\n        require(sender != artworks[imageHash].owner, \"Sender and receiver cannot be the same account\");\r\n        _;\r\n    }\r\n\r\n    modifier onlyOwner(string memory imageHash, address sender)\r\n    {\r\n        require(sender == artworks[imageHash].owner, \"Only artwork owner can delete the image\");\r\n        _;\r\n    }\r\n\r\n    function addArtwork(string memory imageHash,bytes32 imageName,bytes16 imageAuthor,string memory imageDescription,uint imageUploadDate,uint imageTransferLimit,uint imageFee)\r\n        public\r\n        artworkNotExists(imageHash)\r\n    {\r\n        if(imageTransferLimit == 0)\r\n            imageTransferLimit = ones; // Infinite transfer limit if 0\r\n\r\n        ArtworkDetails memory details = ArtworkDetails(imageFee,0,imageTransferLimit,0);\r\n        artworks[imageHash] = Artwork(msg.sender,imageName,imageAuthor,imageDescription,imageUploadDate,details);\r\n        artworkHashes.push(imageHash);\r\n        emit ArtworkSubscribed();\r\n    }\r\n\r\n    function deleteArtwork(string memory imageHash)\r\n        public\r\n        onlyOwner(imageHash,msg.sender)\r\n    {\r\n    }\r\n\r\n    function getArtworks() \r\n        view \r\n        public \r\n        returns(string[] memory) \r\n    {\r\n        return artworkHashes;\r\n    }\r\n\r\n    function getArtworksLength() \r\n        view \r\n        public \r\n        returns (uint) \r\n    {\r\n        return artworkHashes.length;\r\n    }\r\n\r\n    function getArtworkDetails(string memory imageHash)\r\n        public\r\n        view\r\n        artworkExists(imageHash)\r\n        returns(bytes32,bytes16,string memory,uint,ArtworkDetails memory)\r\n    {\r\n        return (artworks[imageHash].imageName,\r\n                artworks[imageHash].imageAuthor,\r\n                artworks[imageHash].imageDescription,\r\n                artworks[imageHash].uploadDate,\r\n                artworks[imageHash].details);\r\n    }  \r\n\r\n    function license(string memory imageHash) \r\n        public \r\n        payable \r\n        differentPerson(msg.sender,imageHash)\r\n        artworkExists(imageHash)\r\n        artworkLimitAvailable(imageHash)\r\n        valueMeetsfee(imageHash,msg.value)\r\n        // inDonationLimit(artworkId,msg.value)\r\n    {\r\n        assert(msg.value > 0);\r\n        assert(msg.value <= address(this).balance);\r\n\r\n        accountController.ownArtwork(imageHash,msg.sender);\r\n\r\n        Artwork storage artwork = artworks[imageHash];\r\n        artwork.owner.transfer(msg.value);\r\n\r\n        artwork.details.avgTransfer = ((artwork.details.avgTransfer * artwork.details.transferCount) + msg.value) / (artwork.details.transferCount + 1);\r\n        artwork.details.transferCount++;\r\n        artwork.details.transferLimit--;\r\n\r\n        emit ArtworkLicensed();\r\n    }\r\n\r\n    function withdraw()\r\n        public\r\n        onlyAdmin(msg.sender)\r\n    {\r\n        pinselAdmin.transfer(address(this).balance);\r\n    }\r\n}",
  "sourcePath": "C:/Users/berka/Documents/Code/ArtChain/contracts/ArtworkController.sol",
  "compiler": {
    "name": "solc",
    "version": "0.5.0+commit.1d4f565a.Emscripten.clang"
  },
  "schemaVersion": "3.0.3",
  "updatedAt": "2019-05-07T22:04:19.274Z",
  "devdoc": {
    "methods": {}
  },
  "userdoc": {
    "methods": {}
  }
}